{
  "_format": "hh-sol-artifact-1",
  "contractName": "FlokiNFTAuction",
  "sourceName": "contracts/FlokiNFTAuction.sol",
  "abi": [
    {
      "inputs": [],
      "stateMutability": "nonpayable",
      "type": "constructor"
    },
    {
      "inputs": [],
      "name": "AUCTION_PRICE",
      "outputs": [
        {
          "internalType": "uint256",
          "name": "",
          "type": "uint256"
        }
      ],
      "stateMutability": "view",
      "type": "function"
    },
    {
      "inputs": [],
      "name": "AuctionCounter",
      "outputs": [
        {
          "internalType": "uint256",
          "name": "",
          "type": "uint256"
        }
      ],
      "stateMutability": "view",
      "type": "function"
    },
    {
      "inputs": [
        {
          "internalType": "address",
          "name": "_new_owner",
          "type": "address"
        }
      ],
      "name": "TransferOwnership",
      "outputs": [],
      "stateMutability": "nonpayable",
      "type": "function"
    },
    {
      "inputs": [],
      "name": "Withdraw",
      "outputs": [],
      "stateMutability": "payable",
      "type": "function"
    },
    {
      "inputs": [
        {
          "internalType": "address",
          "name": "_nft",
          "type": "address"
        },
        {
          "internalType": "uint256",
          "name": "_tokenId",
          "type": "uint256"
        }
      ],
      "name": "bid",
      "outputs": [],
      "stateMutability": "payable",
      "type": "function"
    },
    {
      "inputs": [
        {
          "internalType": "address",
          "name": "",
          "type": "address"
        },
        {
          "internalType": "uint256",
          "name": "",
          "type": "uint256"
        },
        {
          "internalType": "address",
          "name": "",
          "type": "address"
        }
      ],
      "name": "bids",
      "outputs": [
        {
          "internalType": "uint256",
          "name": "",
          "type": "uint256"
        }
      ],
      "stateMutability": "view",
      "type": "function"
    },
    {
      "inputs": [
        {
          "internalType": "address",
          "name": "_nft",
          "type": "address"
        },
        {
          "internalType": "uint256",
          "name": "_tokenId",
          "type": "uint256"
        }
      ],
      "name": "cancelAuction",
      "outputs": [],
      "stateMutability": "nonpayable",
      "type": "function"
    },
    {
      "inputs": [
        {
          "internalType": "address",
          "name": "_nft",
          "type": "address"
        },
        {
          "internalType": "uint256",
          "name": "_tokenId",
          "type": "uint256"
        },
        {
          "internalType": "uint128",
          "name": "_price",
          "type": "uint128"
        },
        {
          "internalType": "uint256",
          "name": "_duration",
          "type": "uint256"
        }
      ],
      "name": "createTokenAuction",
      "outputs": [],
      "stateMutability": "payable",
      "type": "function"
    },
    {
      "inputs": [
        {
          "internalType": "address",
          "name": "_nft",
          "type": "address"
        },
        {
          "internalType": "uint256",
          "name": "_tokenId",
          "type": "uint256"
        }
      ],
      "name": "executeSale",
      "outputs": [],
      "stateMutability": "nonpayable",
      "type": "function"
    },
    {
      "inputs": [
        {
          "internalType": "address",
          "name": "_nft",
          "type": "address"
        },
        {
          "internalType": "uint256",
          "name": "_tokenId",
          "type": "uint256"
        }
      ],
      "name": "getTokenAuctionDetails",
      "outputs": [
        {
          "components": [
            {
              "internalType": "address",
              "name": "seller",
              "type": "address"
            },
            {
              "internalType": "uint256",
              "name": "id",
              "type": "uint256"
            },
            {
              "internalType": "uint128",
              "name": "price",
              "type": "uint128"
            },
            {
              "internalType": "uint256",
              "name": "duration",
              "type": "uint256"
            },
            {
              "internalType": "uint256",
              "name": "maxBid",
              "type": "uint256"
            },
            {
              "internalType": "address",
              "name": "maxBidUser",
              "type": "address"
            },
            {
              "internalType": "bool",
              "name": "isActive",
              "type": "bool"
            },
            {
              "internalType": "uint256[]",
              "name": "bidAmounts",
              "type": "uint256[]"
            },
            {
              "internalType": "address[]",
              "name": "users",
              "type": "address[]"
            }
          ],
          "internalType": "struct FlokiNFTAuction.tokenDetails",
          "name": "",
          "type": "tuple"
        }
      ],
      "stateMutability": "view",
      "type": "function"
    },
    {
      "inputs": [
        {
          "internalType": "address",
          "name": "user_address",
          "type": "address"
        },
        {
          "internalType": "address",
          "name": "nft_contract",
          "type": "address"
        }
      ],
      "name": "getUserAuctions",
      "outputs": [
        {
          "components": [
            {
              "internalType": "address",
              "name": "seller",
              "type": "address"
            },
            {
              "internalType": "uint256",
              "name": "id",
              "type": "uint256"
            },
            {
              "internalType": "uint128",
              "name": "price",
              "type": "uint128"
            },
            {
              "internalType": "uint256",
              "name": "duration",
              "type": "uint256"
            },
            {
              "internalType": "uint256",
              "name": "maxBid",
              "type": "uint256"
            },
            {
              "internalType": "address",
              "name": "maxBidUser",
              "type": "address"
            },
            {
              "internalType": "bool",
              "name": "isActive",
              "type": "bool"
            },
            {
              "internalType": "uint256[]",
              "name": "bidAmounts",
              "type": "uint256[]"
            },
            {
              "internalType": "address[]",
              "name": "users",
              "type": "address[]"
            }
          ],
          "internalType": "struct FlokiNFTAuction.tokenDetails[]",
          "name": "",
          "type": "tuple[]"
        }
      ],
      "stateMutability": "view",
      "type": "function"
    },
    {
      "inputs": [
        {
          "internalType": "address",
          "name": "",
          "type": "address"
        },
        {
          "internalType": "address",
          "name": "",
          "type": "address"
        },
        {
          "internalType": "uint256",
          "name": "",
          "type": "uint256"
        },
        {
          "internalType": "bytes",
          "name": "",
          "type": "bytes"
        }
      ],
      "name": "onERC721Received",
      "outputs": [
        {
          "internalType": "bytes4",
          "name": "",
          "type": "bytes4"
        }
      ],
      "stateMutability": "pure",
      "type": "function"
    },
    {
      "inputs": [],
      "name": "owner",
      "outputs": [
        {
          "internalType": "address",
          "name": "",
          "type": "address"
        }
      ],
      "stateMutability": "view",
      "type": "function"
    },
    {
      "inputs": [
        {
          "internalType": "address",
          "name": "",
          "type": "address"
        },
        {
          "internalType": "uint256",
          "name": "",
          "type": "uint256"
        }
      ],
      "name": "tokenToAuction",
      "outputs": [
        {
          "internalType": "address",
          "name": "seller",
          "type": "address"
        },
        {
          "internalType": "uint256",
          "name": "id",
          "type": "uint256"
        },
        {
          "internalType": "uint128",
          "name": "price",
          "type": "uint128"
        },
        {
          "internalType": "uint256",
          "name": "duration",
          "type": "uint256"
        },
        {
          "internalType": "uint256",
          "name": "maxBid",
          "type": "uint256"
        },
        {
          "internalType": "address",
          "name": "maxBidUser",
          "type": "address"
        },
        {
          "internalType": "bool",
          "name": "isActive",
          "type": "bool"
        }
      ],
      "stateMutability": "view",
      "type": "function"
    },
    {
      "stateMutability": "payable",
      "type": "receive"
    }
  ],
  "bytecode": "0x608060405266470de4df82000060015534801561001b57600080fd5b50600080546001600160a01b03191633179055611a418061003d6000396000f3fe6080604052600436106100e15760003560e01c8063859b97fe1161007f578063cf680c6911610059578063cf680c6914610330578063cfaaa26614610343578063d22f64d714610363578063dd7689221461037957600080fd5b8063859b97fe146102b45780638da5cb5b146102d457806395acfa271461030c57600080fd5b8063722565c5116100bb578063722565c51461016d5780637792ba5f1461019a5780637bed7232146102675780638033d61c1461028757600080fd5b8063150b7a02146100ed57806357ea89b61461015057806359d667a51461015a57600080fd5b366100e857005b600080fd5b3480156100f957600080fd5b50610132610108366004611675565b7f150b7a023d4804d13e8c85fb27262cb750cf6ba9f9dd3bb30d90f482ceeb4b1f95945050505050565b6040516001600160e01b031990911681526020015b60405180910390f35b6101586103b7565b005b61015861016836600461170b565b61044f565b34801561017957600080fd5b5061018d61018836600461170b565b61075c565b6040516101479190611998565b3480156101a657600080fd5b506102166101b536600461170b565b600360208181526000938452604080852090915291835291208054600182015460028301549383015460048401546005909401546001600160a01b039384169592946001600160801b0390931693919291811690600160a01b900460ff1687565b604080516001600160a01b03988916815260208101979097526001600160801b0390951694860194909452606085019290925260808401529290921660a082015290151560c082015260e001610147565b34801561027357600080fd5b5061015861028236600461170b565b6108a6565b34801561029357600080fd5b506102a76102a2366004611643565b610c48565b604051610147919061190b565b3480156102c057600080fd5b506101586102cf36600461170b565b610f21565b3480156102e057600080fd5b506000546102f4906001600160a01b031681565b6040516001600160a01b039091168152602001610147565b34801561031857600080fd5b5061032260015481565b604051908152602001610147565b61015861033e36600461176f565b61110b565b34801561034f57600080fd5b5061015861035e366004611622565b611462565b34801561036f57600080fd5b5061032260025481565b34801561038557600080fd5b50610322610394366004611734565b600460209081526000938452604080852082529284528284209052825290205481565b6000546001600160a01b031633146104205760405162461bcd60e51b815260206004820152602160248201527f6f6e6c79204f776e65722063616e2043616c6c20746869732046756e6374696f6044820152603760f91b60648201526084015b60405180910390fd5b60405133903480156108fc02916000818181858888f1935050505015801561044c573d6000803e3d6000fd5b50565b6001600160a01b0382166000908152600360209081526040808320848452909152902060028101546001600160801b03163410156104db5760405162461bcd60e51b8152602060048201526024808201527f626964207072696365206973206c657373207468616e2063757272656e7420706044820152637269636560e01b6064820152608401610417565b6005810154600160a01b900460ff166105065760405162461bcd60e51b81526004016104179061196c565b428160030154116105595760405162461bcd60e51b815260206004820152601760248201527f446561646c696e6520616c7265616479207061737365640000000000000000006044820152606401610417565b6001600160a01b0383166000908152600460209081526040808320858452825280832033845290915290205415610606576001600160a01b038316600090815260046020908152604080832085845282528083203380855292528083205490518381818185875af1925050503d80600081146105f1576040519150601f19603f3d011682016040523d82523d6000602084013e6105f6565b606091505b505090508061060457600080fd5b505b6001600160a01b038316600090815260046020908152604080832085845282528083203384529091529020349055600681015461065c573460048201556005810180546001600160a01b0319163317905561071a565b6006810154600090610670906001906119c3565b90503482600601828154811061069657634e487b7160e01b600052603260045260246000fd5b9060005260206000200154106106fe5760405162461bcd60e51b815260206004820152602760248201527f43757272656e74206d61782062696420697320686967686572207468616e20796044820152661bdd5c88189a5960ca1b6064820152608401610417565b503460048201556005810180546001600160a01b031916331790555b600781018054600181810183556000928352602080842090920180546001600160a01b0319163317905560069093018054938401815582529020349101555050565b6107646114e8565b6001600160a01b038381166000908152600360208181526040808420878552825280842081516101208101835281548716815260018201548185015260028201546001600160801b03168184015293810154606085015260048101546080850152600581015495861660a0850152600160a01b90950460ff16151560c08401526006850180548251818502810185019093528083529495939460e086019383018282801561083157602002820191906000526020600020905b81548152602001906001019080831161081d575b505050505081526020016007820180548060200260200160405190810160405280929190818152602001828054801561089357602002820191906000526020600020905b81546001600160a01b03168152600190910190602001808311610875575b5050509190925250919695505050505050565b6001600160a01b03821660009081526003602081815260408084208585529091529091209081015442101561091d5760405162461bcd60e51b815260206004820152601960248201527f446561646c696e6520646964206e6f74207061737320796574000000000000006044820152606401610417565b80546001600160a01b031633146109635760405162461bcd60e51b815260206004820152600a6024820152692737ba1039b2b63632b960b11b6044820152606401610417565b6005810154600160a01b900460ff1661098e5760405162461bcd60e51b81526004016104179061196c565b60058101805460ff60a01b191690556006810154610a10578054604051632142170760e11b81526001600160a01b03808616926342842e0e926109d9923092169087906004016118e7565b600060405180830381600087803b1580156109f357600080fd5b505af1158015610a07573d6000803e3d6000fd5b50505050505050565b805460048201546040516000926001600160a01b031691908381818185875af1925050503d8060008114610a60576040519150601f19603f3d011682016040523d82523d6000602084013e610a65565b606091505b5050905080610a7357600080fd5b60005b6007830154811015610bd95760058301546007840180546001600160a01b039092169183908110610ab757634e487b7160e01b600052603260045260246000fd5b6000918252602090912001546001600160a01b031614610bc757826007018181548110610af457634e487b7160e01b600052603260045260246000fd5b60009182526020808320909101546001600160a01b0388811684526004835260408085208986529093529183206007870180549390921693909290919085908110610b4f57634e487b7160e01b600052603260045260246000fd5b6000918252602080832091909101546001600160a01b0316835282019290925260409081018220549051909181818185875af1925050503d8060008114610bb2576040519150601f19603f3d011682016040523d82523d6000602084013e610bb7565b606091505b50508092505081610bc757600080fd5b80610bd1816119da565b915050610a76565b506005820154604051632142170760e11b81526001600160a01b03808716926342842e0e92610c10923092169088906004016118e7565b600060405180830381600087803b158015610c2a57600080fd5b505af1158015610c3e573d6000803e3d6000fd5b5050505050505050565b606060008060005b6002548111610cc2576001600160a01b0385811660009081526003602052604081209188169190610c828460016119ab565b81526020810191909152604001600020546001600160a01b03161415610cb05782610cac816119da565b9350505b80610cba816119da565b915050610c50565b5060008267ffffffffffffffff811115610cec57634e487b7160e01b600052604160045260246000fd5b604051908082528060200260200182016040528015610d2557816020015b610d126114e8565b815260200190600190039081610d0a5790505b50905060005b6002548111610f17576001600160a01b0386811660009081526003602052604081209189169190610d5d8460016119ab565b81526020810191909152604001600020546001600160a01b03161415610f05576000610d8a8260016119ab565b6001600160a01b03888116600090815260036020818152604080842086855282529283902083516101208101855281548616815260018201548184015260028201546001600160801b03168186015292810154606084015260048101546080840152600581015494851660a0840152600160a01b90940460ff16151560c083015260068401805484518184028101840190955280855295965093949193859360e08601939092830182828015610e5f57602002820191906000526020600020905b815481526020019060010190808311610e4b575b5050505050815260200160078201805480602002602001604051908101604052809291908181526020018280548015610ec157602002820191906000526020600020905b81546001600160a01b03168152600190910190602001808311610ea3575b505050505081525050848681518110610eea57634e487b7160e01b600052603260045260246000fd5b6020908102919091010152610f006001866119ab565b945050505b80610f0f816119da565b915050610d2b565b5095945050505050565b6001600160a01b038083166000908152600360209081526040808320858452909152902080549091163314610f855760405162461bcd60e51b815260206004820152600a6024820152692737ba1039b2b63632b960b11b6044820152606401610417565b6005810154600160a01b900460ff16610fb05760405162461bcd60e51b81526004016104179061196c565b60058101805460ff60a01b191690556000805b60078301548110156110d757826007018181548110610ff257634e487b7160e01b600052603260045260246000fd5b60009182526020808320909101546001600160a01b038881168452600483526040808520898652909352918320600787018054939092169390929091908590811061104d57634e487b7160e01b600052603260045260246000fd5b6000918252602080832091909101546001600160a01b0316835282019290925260409081018220549051909181818185875af1925050503d80600081146110b0576040519150601f19603f3d011682016040523d82523d6000602084013e6110b5565b606091505b505080925050816110c557600080fd5b806110cf816119da565b915050610fc3565b508154604051632142170760e11b81526001600160a01b03808716926342842e0e92610c10923092169088906004016118e7565b3361114a5760405162461bcd60e51b815260206004820152600f60248201526e496e76616c6964204164647265737360881b6044820152606401610417565b6001600160a01b0384166111925760405162461bcd60e51b815260206004820152600f60248201526e125b9d985b1a59081058d8dbdd5b9d608a1b6044820152606401610417565b6000826001600160801b0316116111eb5760405162461bcd60e51b815260206004820152601b60248201527f50726963652073686f756c64206265206d6f7265207468616e203000000000006044820152606401610417565b600081116112345760405162461bcd60e51b8152602060048201526016602482015275496e76616c6964206475726174696f6e2076616c756560501b6044820152606401610417565b6001543410156112995760405162461bcd60e51b815260206004820152602a60248201527f302e303220457468657273206973206e656564656420746f204372656174652060448201526930b71020bab1ba34b7b760b11b6064820152608401610417565b604080516101208101825233815260208082018690526001600160801b038516828401526060820184905260006080830181905260a08301819052600160c08401528351818152808301855260e0840152835181815291820190935261010082015260028054919261130a836119da565b9091555050604051632142170760e11b81526001600160a01b038616906342842e0e9061133f903390309089906004016118e7565b600060405180830381600087803b15801561135957600080fd5b505af115801561136d573d6000803e3d6000fd5b505050506001600160a01b038581166000908152600360208181526040808420898552825292839020855181546001600160a01b031916908616178155858201516001820155928501516002840180546fffffffffffffffffffffffffffffffff19166001600160801b039092169190911790556060850151918301919091556080840151600483015560a084015160058301805460c0870151929095166001600160a81b031990951694909417600160a01b911515919091021790925560e083015180518493611445926006850192910190611551565b506101008201518051610c3e91600784019160209091019061159c565b6000546001600160a01b031633146114c65760405162461bcd60e51b815260206004820152602160248201527f6f6e6c79206f776e65722063616e2063616c6c20746869732066756e6374696f6044820152603760f91b6064820152608401610417565b600080546001600160a01b0319166001600160a01b0392909216919091179055565b60405180610120016040528060006001600160a01b031681526020016000815260200160006001600160801b03168152602001600081526020016000815260200160006001600160a01b0316815260200160001515815260200160608152602001606081525090565b82805482825590600052602060002090810192821561158c579160200282015b8281111561158c578251825591602001919060010190611571565b506115989291506115f1565b5090565b82805482825590600052602060002090810192821561158c579160200282015b8281111561158c57825182546001600160a01b0319166001600160a01b039091161782556020909201916001909101906115bc565b5b8082111561159857600081556001016115f2565b80356001600160a01b038116811461161d57600080fd5b919050565b600060208284031215611633578081fd5b61163c82611606565b9392505050565b60008060408385031215611655578081fd5b61165e83611606565b915061166c60208401611606565b90509250929050565b60008060008060006080868803121561168c578081fd5b61169586611606565b94506116a360208701611606565b935060408601359250606086013567ffffffffffffffff808211156116c6578283fd5b818801915088601f8301126116d9578283fd5b8135818111156116e7578384fd5b8960208285010111156116f8578384fd5b9699959850939650602001949392505050565b6000806040838503121561171d578182fd5b61172683611606565b946020939093013593505050565b600080600060608486031215611748578283fd5b61175184611606565b92506020840135915061176660408501611606565b90509250925092565b60008060008060808587031215611784578384fd5b61178d85611606565b93506020850135925060408501356001600160801b03811681146117af578283fd5b9396929550929360600135925050565b6000815180845260208085019450808401835b838110156117f75781516001600160a01b0316875295820195908201906001016117d2565b509495945050505050565b6000815180845260208085019450808401835b838110156117f757815187529582019590820190600101611815565b80516001600160a01b03168252600061012060208301516020850152604083015161186760408601826001600160801b03169052565b50606083015160608501526080830151608085015260a083015161189660a08601826001600160a01b03169052565b5060c08301516118aa60c086018215159052565b5060e08301518160e08601526118c282860182611802565b91505061010080840151858303828701526118dd83826117bf565b9695505050505050565b6001600160a01b039384168152919092166020820152604081019190915260600190565b6000602080830181845280855180835260408601915060408160051b8701019250838701855b8281101561195f57603f1988860301845261194d858351611831565b94509285019290850190600101611931565b5092979650505050505050565b60208082526012908201527161756374696f6e206e6f742061637469766560701b604082015260600190565b60208152600061163c6020830184611831565b600082198211156119be576119be6119f5565b500190565b6000828210156119d5576119d56119f5565b500390565b60006000198214156119ee576119ee6119f5565b5060010190565b634e487b7160e01b600052601160045260246000fdfea264697066735822122056863f1d4dd5abc46d3f57ff44fda54242e13ab5e683e4ed77e757f2b669dbd864736f6c63430008040033",
  "linkReferences": {},
  "deployedLinkReferences": {}
}