{
  "_format": "hh-sol-artifact-1",
  "contractName": "FlokiMinter",
  "sourceName": "contracts/FlokiMinter.sol",
  "abi": [
    {
      "inputs": [],
      "stateMutability": "nonpayable",
      "type": "constructor"
    },
    {
      "anonymous": false,
      "inputs": [
        {
          "indexed": true,
          "internalType": "address",
          "name": "owner",
          "type": "address"
        },
        {
          "indexed": true,
          "internalType": "address",
          "name": "approved",
          "type": "address"
        },
        {
          "indexed": true,
          "internalType": "uint256",
          "name": "tokenId",
          "type": "uint256"
        }
      ],
      "name": "Approval",
      "type": "event"
    },
    {
      "anonymous": false,
      "inputs": [
        {
          "indexed": true,
          "internalType": "address",
          "name": "owner",
          "type": "address"
        },
        {
          "indexed": true,
          "internalType": "address",
          "name": "operator",
          "type": "address"
        },
        {
          "indexed": false,
          "internalType": "bool",
          "name": "approved",
          "type": "bool"
        }
      ],
      "name": "ApprovalForAll",
      "type": "event"
    },
    {
      "anonymous": false,
      "inputs": [
        {
          "indexed": true,
          "internalType": "address",
          "name": "from",
          "type": "address"
        },
        {
          "indexed": true,
          "internalType": "address",
          "name": "to",
          "type": "address"
        },
        {
          "indexed": true,
          "internalType": "uint256",
          "name": "tokenId",
          "type": "uint256"
        }
      ],
      "name": "Transfer",
      "type": "event"
    },
    {
      "inputs": [
        {
          "internalType": "string",
          "name": "_name",
          "type": "string"
        },
        {
          "internalType": "string",
          "name": "_symbol",
          "type": "string"
        },
        {
          "internalType": "string",
          "name": "_initBaseURI",
          "type": "string"
        },
        {
          "internalType": "address",
          "name": "_artist",
          "type": "address"
        },
        {
          "internalType": "uint256",
          "name": "_TxFeeAmount",
          "type": "uint256"
        },
        {
          "internalType": "uint256",
          "name": "_amount",
          "type": "uint256"
        },
        {
          "internalType": "uint256",
          "name": "amountTomint",
          "type": "uint256"
        },
        {
          "internalType": "address",
          "name": "CollectionOwner",
          "type": "address"
        }
      ],
      "name": "CreateCollection",
      "outputs": [],
      "stateMutability": "payable",
      "type": "function"
    },
    {
      "inputs": [],
      "name": "Withdraw",
      "outputs": [],
      "stateMutability": "payable",
      "type": "function"
    },
    {
      "inputs": [
        {
          "internalType": "address",
          "name": "to",
          "type": "address"
        },
        {
          "internalType": "uint256",
          "name": "tokenId",
          "type": "uint256"
        }
      ],
      "name": "approve",
      "outputs": [],
      "stateMutability": "nonpayable",
      "type": "function"
    },
    {
      "inputs": [
        {
          "internalType": "address",
          "name": "owner",
          "type": "address"
        }
      ],
      "name": "balanceOf",
      "outputs": [
        {
          "internalType": "uint256",
          "name": "",
          "type": "uint256"
        }
      ],
      "stateMutability": "view",
      "type": "function"
    },
    {
      "inputs": [],
      "name": "collectionIds",
      "outputs": [
        {
          "internalType": "uint256",
          "name": "",
          "type": "uint256"
        }
      ],
      "stateMutability": "view",
      "type": "function"
    },
    {
      "inputs": [
        {
          "internalType": "uint256",
          "name": "",
          "type": "uint256"
        }
      ],
      "name": "collections",
      "outputs": [
        {
          "internalType": "contract FlokiCollection",
          "name": "",
          "type": "address"
        }
      ],
      "stateMutability": "view",
      "type": "function"
    },
    {
      "inputs": [
        {
          "internalType": "uint256",
          "name": "",
          "type": "uint256"
        }
      ],
      "name": "collectionsList",
      "outputs": [
        {
          "internalType": "address",
          "name": "",
          "type": "address"
        }
      ],
      "stateMutability": "view",
      "type": "function"
    },
    {
      "inputs": [
        {
          "internalType": "string",
          "name": "tokenURI",
          "type": "string"
        }
      ],
      "name": "createToken",
      "outputs": [
        {
          "internalType": "uint256",
          "name": "",
          "type": "uint256"
        }
      ],
      "stateMutability": "payable",
      "type": "function"
    },
    {
      "inputs": [
        {
          "internalType": "uint256",
          "name": "tokenId",
          "type": "uint256"
        }
      ],
      "name": "getApproved",
      "outputs": [
        {
          "internalType": "address",
          "name": "",
          "type": "address"
        }
      ],
      "stateMutability": "view",
      "type": "function"
    },
    {
      "inputs": [
        {
          "internalType": "address",
          "name": "owner",
          "type": "address"
        },
        {
          "internalType": "address",
          "name": "operator",
          "type": "address"
        }
      ],
      "name": "isApprovedForAll",
      "outputs": [
        {
          "internalType": "bool",
          "name": "",
          "type": "bool"
        }
      ],
      "stateMutability": "view",
      "type": "function"
    },
    {
      "inputs": [],
      "name": "name",
      "outputs": [
        {
          "internalType": "string",
          "name": "",
          "type": "string"
        }
      ],
      "stateMutability": "view",
      "type": "function"
    },
    {
      "inputs": [
        {
          "internalType": "uint256",
          "name": "tokenId",
          "type": "uint256"
        }
      ],
      "name": "ownerOf",
      "outputs": [
        {
          "internalType": "address",
          "name": "",
          "type": "address"
        }
      ],
      "stateMutability": "view",
      "type": "function"
    },
    {
      "inputs": [
        {
          "internalType": "address",
          "name": "from",
          "type": "address"
        },
        {
          "internalType": "address",
          "name": "to",
          "type": "address"
        },
        {
          "internalType": "uint256",
          "name": "tokenId",
          "type": "uint256"
        }
      ],
      "name": "safeTransferFrom",
      "outputs": [],
      "stateMutability": "nonpayable",
      "type": "function"
    },
    {
      "inputs": [
        {
          "internalType": "address",
          "name": "from",
          "type": "address"
        },
        {
          "internalType": "address",
          "name": "to",
          "type": "address"
        },
        {
          "internalType": "uint256",
          "name": "tokenId",
          "type": "uint256"
        },
        {
          "internalType": "bytes",
          "name": "_data",
          "type": "bytes"
        }
      ],
      "name": "safeTransferFrom",
      "outputs": [],
      "stateMutability": "nonpayable",
      "type": "function"
    },
    {
      "inputs": [
        {
          "internalType": "address",
          "name": "operator",
          "type": "address"
        },
        {
          "internalType": "bool",
          "name": "approved",
          "type": "bool"
        }
      ],
      "name": "setApprovalForAll",
      "outputs": [],
      "stateMutability": "nonpayable",
      "type": "function"
    },
    {
      "inputs": [
        {
          "internalType": "bytes4",
          "name": "interfaceId",
          "type": "bytes4"
        }
      ],
      "name": "supportsInterface",
      "outputs": [
        {
          "internalType": "bool",
          "name": "",
          "type": "bool"
        }
      ],
      "stateMutability": "view",
      "type": "function"
    },
    {
      "inputs": [],
      "name": "symbol",
      "outputs": [
        {
          "internalType": "string",
          "name": "",
          "type": "string"
        }
      ],
      "stateMutability": "view",
      "type": "function"
    },
    {
      "inputs": [
        {
          "internalType": "uint256",
          "name": "tokenId",
          "type": "uint256"
        }
      ],
      "name": "tokenURI",
      "outputs": [
        {
          "internalType": "string",
          "name": "",
          "type": "string"
        }
      ],
      "stateMutability": "view",
      "type": "function"
    },
    {
      "inputs": [
        {
          "internalType": "address",
          "name": "from",
          "type": "address"
        },
        {
          "internalType": "address",
          "name": "to",
          "type": "address"
        },
        {
          "internalType": "uint256",
          "name": "tokenId",
          "type": "uint256"
        }
      ],
      "name": "transferFrom",
      "outputs": [],
      "stateMutability": "nonpayable",
      "type": "function"
    }
  ],
  "bytecode": "0x608060405266470de4df820000600a5566470de4df820000600b553480156200002757600080fd5b506040518060400160405280600b81526020017f466c6f6b692d466c6f6d6f0000000000000000000000000000000000000000008152506040518060400160405280600281526020017f46460000000000000000000000000000000000000000000000000000000000008152508160009080519060200190620000ac929190620000ce565b508060019080519060200190620000c5929190620000ce565b505050620001e3565b828054620000dc906200017e565b90600052602060002090601f0160209004810192826200010057600085556200014c565b82601f106200011b57805160ff19168380011785556200014c565b828001600101855582156200014c579182015b828111156200014b5782518255916020019190600101906200012e565b5b5090506200015b91906200015f565b5090565b5b808211156200017a57600081600090555060010162000160565b5090565b600060028204905060018216806200019757607f821691505b60208210811415620001ae57620001ad620001b4565b5b50919050565b7f4e487b7100000000000000000000000000000000000000000000000000000000600052602260045260246000fd5b618c4e80620001f36000396000f3fe6080604052600436106200012e5760003560e01c806345576f9411620000af578063a22cb465116200006d578063a22cb4651462000403578063b88d4fde1462000431578063c87b56dd146200045f578063e985e9c514620004a3578063fdbda0ec14620004e7576200012e565b806345576f94146200030957806357ea89b6146200033f5780636352211e146200034b57806370a08231146200038f57806395d89b4114620003d3576200012e565b80632190ba7c11620000fd5780632190ba7c146200021957806323b872dd14620002495780632d8933e91462000277578063407b0ff5146200029757806342842e0e14620002db576200012e565b806301ffc9a7146200013357806306fdde031462000177578063081812fc14620001a7578063095ea7b314620001eb575b600080fd5b3480156200014057600080fd5b506200015f6004803603810190620001599190620021f2565b6200052b565b6040516200016e9190620027f6565b60405180910390f35b3480156200018457600080fd5b506200018f62000611565b6040516200019e919062002830565b60405180910390f35b348015620001b457600080fd5b50620001d36004803603810190620001cd91906200239d565b620006ab565b604051620001e2919062002785565b60405180910390f35b348015620001f857600080fd5b50620002176004803603810190620002119190620021b1565b62000735565b005b3480156200022657600080fd5b50620002316200085e565b60405162000240919062002b28565b60405180910390f35b3480156200025657600080fd5b506200027560048036038101906200026f919062002095565b62000864565b005b6200029560048036038101906200028f91906200228f565b620008cd565b005b348015620002a457600080fd5b50620002c36004803603810190620002bd91906200239d565b62000a36565b604051620002d2919062002785565b60405180910390f35b348015620002e857600080fd5b5062000307600480360381019062000301919062002095565b62000a69565b005b6200032760048036038101906200032191906200224a565b62000a8b565b60405162000336919062002b28565b60405180910390f35b6200034962000b41565b005b3480156200035857600080fd5b506200037760048036038101906200037191906200239d565b62000b8b565b60405162000386919062002785565b60405180910390f35b3480156200039c57600080fd5b50620003bb6004803603810190620003b5919062002028565b62000c40565b604051620003ca919062002b28565b60405180910390f35b348015620003e057600080fd5b50620003eb62000cfb565b604051620003fa919062002830565b60405180910390f35b3480156200041057600080fd5b506200042f600480360381019062000429919062002170565b62000d95565b005b3480156200043e57600080fd5b506200045d6004803603810190620004579190620020eb565b62000daf565b005b3480156200046c57600080fd5b506200048b60048036038101906200048591906200239d565b62000e1a565b6040516200049a919062002830565b60405180910390f35b348015620004b057600080fd5b50620004cf6004803603810190620004c9919062002054565b62000f83565b604051620004de9190620027f6565b60405180910390f35b348015620004f457600080fd5b506200051360048036038101906200050d91906200239d565b62001017565b60405162000522919062002813565b60405180910390f35b60007f80ac58cd000000000000000000000000000000000000000000000000000000007bffffffffffffffffffffffffffffffffffffffffffffffffffffffff1916827bffffffffffffffffffffffffffffffffffffffffffffffffffffffff19161480620005f757507f5b5e139f000000000000000000000000000000000000000000000000000000007bffffffffffffffffffffffffffffffffffffffffffffffffffffffff1916827bffffffffffffffffffffffffffffffffffffffffffffffffffffffff1916145b806200060a5750620006098262001057565b5b9050919050565b606060008054620006229062002dd0565b80601f0160208091040260200160405190810160405280929190818152602001828054620006509062002dd0565b8015620006a15780601f106200067557610100808354040283529160200191620006a1565b820191906000526020600020905b8154815290600101906020018083116200068357829003601f168201915b5050505050905090565b6000620006b882620010c1565b620006fa576040517f08c379a0000000000000000000000000000000000000000000000000000000008152600401620006f19062002aa0565b60405180910390fd5b6004600083815260200190815260200160002060009054906101000a900473ffffffffffffffffffffffffffffffffffffffff169050919050565b6000620007428262000b8b565b90508073ffffffffffffffffffffffffffffffffffffffff168373ffffffffffffffffffffffffffffffffffffffff161415620007b6576040517f08c379a0000000000000000000000000000000000000000000000000000000008152600401620007ad9062002ae4565b60405180910390fd5b8073ffffffffffffffffffffffffffffffffffffffff16620007d76200112d565b73ffffffffffffffffffffffffffffffffffffffff1614806200080b57506200080a81620008046200112d565b62000f83565b5b6200084d576040517f08c379a00000000000000000000000000000000000000000000000000000000081526004016200084490620029d4565b60405180910390fd5b62000859838362001135565b505050565b60085481565b62000879620008726200112d565b82620011f0565b620008bb576040517f08c379a0000000000000000000000000000000000000000000000000000000008152600401620008b29062002b06565b60405180910390fd5b620008c8838383620012db565b505050565b600b5434101562000915576040517f08c379a00000000000000000000000000000000000000000000000000000000081526004016200090c9062002908565b60405180910390fd5b6000888888888888876040516200092c9062001e13565b6200093e979695949392919062002854565b604051809103906000f0801580156200095b573d6000803e3d6000fd5b50905080600c600060086000815480929190620009789062002e3c565b91905055815260200190815260200160002060006101000a81548173ffffffffffffffffffffffffffffffffffffffff021916908373ffffffffffffffffffffffffffffffffffffffff160217905550600d819080600181540180825580915050600190039060005260206000200160009091909190916101000a81548173ffffffffffffffffffffffffffffffffffffffff021916908373ffffffffffffffffffffffffffffffffffffffff160217905550505050505050505050565b600c6020528060005260406000206000915054906101000a900473ffffffffffffffffffffffffffffffffffffffff1681565b62000a868383836040518060200160405280600081525062000daf565b505050565b6000600a5434101562000ad5576040517f08c379a000000000000000000000000000000000000000000000000000000000815260040162000acc9062002908565b60405180910390fd5b62000ae1600762001554565b600062000aef60076200156a565b905062000afd338262001578565b62000b09818462001760565b62000b38600960009054906101000a900473ffffffffffffffffffffffffffffffffffffffff16600162000d95565b80915050919050565b3373ffffffffffffffffffffffffffffffffffffffff166108fc349081150290604051600060405180830381858888f1935050505015801562000b88573d6000803e3d6000fd5b50565b6000806002600084815260200190815260200160002060009054906101000a900473ffffffffffffffffffffffffffffffffffffffff169050600073ffffffffffffffffffffffffffffffffffffffff168173ffffffffffffffffffffffffffffffffffffffff16141562000c37576040517f08c379a000000000000000000000000000000000000000000000000000000000815260040162000c2e9062002a18565b60405180910390fd5b80915050919050565b60008073ffffffffffffffffffffffffffffffffffffffff168273ffffffffffffffffffffffffffffffffffffffff16141562000cb4576040517f08c379a000000000000000000000000000000000000000000000000000000000815260040162000cab90620029f6565b60405180910390fd5b600360008373ffffffffffffffffffffffffffffffffffffffff1673ffffffffffffffffffffffffffffffffffffffff168152602001908152602001600020549050919050565b60606001805462000d0c9062002dd0565b80601f016020809104026020016040519081016040528092919081815260200182805462000d3a9062002dd0565b801562000d8b5780601f1062000d5f5761010080835404028352916020019162000d8b565b820191906000526020600020905b81548152906001019060200180831162000d6d57829003601f168201915b5050505050905090565b62000dab62000da36200112d565b8383620017db565b5050565b62000dc462000dbd6200112d565b83620011f0565b62000e06576040517f08c379a000000000000000000000000000000000000000000000000000000000815260040162000dfd9062002b06565b60405180910390fd5b62000e14848484846200194d565b50505050565b606062000e2782620010c1565b62000e69576040517f08c379a000000000000000000000000000000000000000000000000000000000815260040162000e609062002a7e565b60405180910390fd5b600060066000848152602001908152602001600020805462000e8b9062002dd0565b80601f016020809104026020016040519081016040528092919081815260200182805462000eb99062002dd0565b801562000f0a5780601f1062000ede5761010080835404028352916020019162000f0a565b820191906000526020600020905b81548152906001019060200180831162000eec57829003601f168201915b50505050509050600062000f1d620019b0565b905060008151141562000f3557819250505062000f7e565b60008251111562000f6e57808260405160200162000f559291906200275d565b6040516020818303038152906040529250505062000f7e565b62000f7984620019c7565b925050505b919050565b6000600560008473ffffffffffffffffffffffffffffffffffffffff1673ffffffffffffffffffffffffffffffffffffffff16815260200190815260200160002060008373ffffffffffffffffffffffffffffffffffffffff1673ffffffffffffffffffffffffffffffffffffffff16815260200190815260200160002060009054906101000a900460ff16905092915050565b600d81815481106200102857600080fd5b906000526020600020016000915054906101000a900473ffffffffffffffffffffffffffffffffffffffff1681565b60007f01ffc9a7000000000000000000000000000000000000000000000000000000007bffffffffffffffffffffffffffffffffffffffffffffffffffffffff1916827bffffffffffffffffffffffffffffffffffffffffffffffffffffffff1916149050919050565b60008073ffffffffffffffffffffffffffffffffffffffff166002600084815260200190815260200160002060009054906101000a900473ffffffffffffffffffffffffffffffffffffffff1673ffffffffffffffffffffffffffffffffffffffff1614159050919050565b600033905090565b816004600083815260200190815260200160002060006101000a81548173ffffffffffffffffffffffffffffffffffffffff021916908373ffffffffffffffffffffffffffffffffffffffff160217905550808273ffffffffffffffffffffffffffffffffffffffff16620011aa8362000b8b565b73ffffffffffffffffffffffffffffffffffffffff167f8c5be1e5ebec7d5bd14f71427d1e84f3dd0314c0f7b2291e5b200ac8c7c3b92560405160405180910390a45050565b6000620011fd82620010c1565b6200123f576040517f08c379a00000000000000000000000000000000000000000000000000000000081526004016200123690620029b2565b60405180910390fd5b60006200124c8362000b8b565b90508073ffffffffffffffffffffffffffffffffffffffff168473ffffffffffffffffffffffffffffffffffffffff161480620012be57508373ffffffffffffffffffffffffffffffffffffffff16620012a684620006ab565b73ffffffffffffffffffffffffffffffffffffffff16145b80620012d25750620012d1818562000f83565b5b91505092915050565b8273ffffffffffffffffffffffffffffffffffffffff16620012fd8262000b8b565b73ffffffffffffffffffffffffffffffffffffffff161462001356576040517f08c379a00000000000000000000000000000000000000000000000000000000081526004016200134d906200292a565b60405180910390fd5b600073ffffffffffffffffffffffffffffffffffffffff168273ffffffffffffffffffffffffffffffffffffffff161415620013c9576040517f08c379a0000000000000000000000000000000000000000000000000000000008152600401620013c0906200296e565b60405180910390fd5b620013d683838362001a7b565b620013e360008262001135565b6001600360008573ffffffffffffffffffffffffffffffffffffffff1673ffffffffffffffffffffffffffffffffffffffff168152602001908152602001600020600082825462001435919062002cb2565b925050819055506001600360008473ffffffffffffffffffffffffffffffffffffffff1673ffffffffffffffffffffffffffffffffffffffff16815260200190815260200160002060008282546200148e919062002c1d565b92505081905550816002600083815260200190815260200160002060006101000a81548173ffffffffffffffffffffffffffffffffffffffff021916908373ffffffffffffffffffffffffffffffffffffffff160217905550808273ffffffffffffffffffffffffffffffffffffffff168473ffffffffffffffffffffffffffffffffffffffff167fddf252ad1be2c89b69c2b068fc378daa952ba7f163c4a11628f55a4df523b3ef60405160405180910390a46200154f83838362001a80565b505050565b6001816000016000828254019250508190555050565b600081600001549050919050565b600073ffffffffffffffffffffffffffffffffffffffff168273ffffffffffffffffffffffffffffffffffffffff161415620015eb576040517f08c379a0000000000000000000000000000000000000000000000000000000008152600401620015e29062002a5c565b60405180910390fd5b620015f681620010c1565b1562001639576040517f08c379a000000000000000000000000000000000000000000000000000000000815260040162001630906200294c565b60405180910390fd5b620016476000838362001a7b565b6001600360008473ffffffffffffffffffffffffffffffffffffffff1673ffffffffffffffffffffffffffffffffffffffff168152602001908152602001600020600082825462001699919062002c1d565b92505081905550816002600083815260200190815260200160002060006101000a81548173ffffffffffffffffffffffffffffffffffffffff021916908373ffffffffffffffffffffffffffffffffffffffff160217905550808273ffffffffffffffffffffffffffffffffffffffff16600073ffffffffffffffffffffffffffffffffffffffff167fddf252ad1be2c89b69c2b068fc378daa952ba7f163c4a11628f55a4df523b3ef60405160405180910390a46200175c6000838362001a80565b5050565b6200176b82620010c1565b620017ad576040517f08c379a0000000000000000000000000000000000000000000000000000000008152600401620017a49062002a3a565b60405180910390fd5b80600660008481526020019081526020016000209080519060200190620017d692919062001e21565b505050565b8173ffffffffffffffffffffffffffffffffffffffff168373ffffffffffffffffffffffffffffffffffffffff1614156200184d576040517f08c379a0000000000000000000000000000000000000000000000000000000008152600401620018449062002990565b60405180910390fd5b80600560008573ffffffffffffffffffffffffffffffffffffffff1673ffffffffffffffffffffffffffffffffffffffff16815260200190815260200160002060008473ffffffffffffffffffffffffffffffffffffffff1673ffffffffffffffffffffffffffffffffffffffff16815260200190815260200160002060006101000a81548160ff0219169083151502179055508173ffffffffffffffffffffffffffffffffffffffff168373ffffffffffffffffffffffffffffffffffffffff167f17307eab39ab6107e8899845ad3d59bd9653f200f220920489ca2b5937696c3183604051620019409190620027f6565b60405180910390a3505050565b6200195a848484620012db565b620019688484848462001a85565b620019aa576040517f08c379a0000000000000000000000000000000000000000000000000000000008152600401620019a190620028e6565b60405180910390fd5b50505050565b606060405180602001604052806000815250905090565b6060620019d482620010c1565b62001a16576040517f08c379a000000000000000000000000000000000000000000000000000000000815260040162001a0d9062002ac2565b60405180910390fd5b600062001a22620019b0565b9050600081511162001a44576040518060200160405280600081525062001a73565b8062001a508462001c2e565b60405160200162001a639291906200275d565b6040516020818303038152906040525b915050919050565b505050565b505050565b600062001aa88473ffffffffffffffffffffffffffffffffffffffff1662001df0565b1562001c21578373ffffffffffffffffffffffffffffffffffffffff1663150b7a0262001ad46200112d565b8786866040518563ffffffff1660e01b815260040162001af89493929190620027a2565b602060405180830381600087803b15801562001b1357600080fd5b505af192505050801562001b4757506040513d601f19601f8201168201806040525081019062001b4491906200221e565b60015b62001bd0573d806000811462001b7a576040519150601f19603f3d011682016040523d82523d6000602084013e62001b7f565b606091505b5060008151141562001bc8576040517f08c379a000000000000000000000000000000000000000000000000000000000815260040162001bbf90620028e6565b60405180910390fd5b805181602001fd5b63150b7a0260e01b7bffffffffffffffffffffffffffffffffffffffffffffffffffffffff1916817bffffffffffffffffffffffffffffffffffffffffffffffffffffffff19161491505062001c26565b600190505b949350505050565b6060600082141562001c78576040518060400160405280600181526020017f3000000000000000000000000000000000000000000000000000000000000000815250905062001deb565b600082905060005b6000821462001cb057808062001c969062002e3c565b915050600a8262001ca8919062002c7a565b915062001c80565b60008167ffffffffffffffff81111562001cf3577f4e487b7100000000000000000000000000000000000000000000000000000000600052604160045260246000fd5b6040519080825280601f01601f19166020018201604052801562001d265781602001600182028036833780820191505090505b5090505b6000851462001de45760018262001d42919062002cb2565b9150600a8562001d53919062002e8a565b603062001d61919062002c1d565b60f81b81838151811062001d9e577f4e487b7100000000000000000000000000000000000000000000000000000000600052603260045260246000fd5b60200101907effffffffffffffffffffffffffffffffffffffffffffffffffffffffffffff1916908160001a905350600a8562001ddc919062002c7a565b945062001d2a565b8093505050505b919050565b6000808273ffffffffffffffffffffffffffffffffffffffff163b119050919050565b61577a806200349f83390190565b82805462001e2f9062002dd0565b90600052602060002090601f01602090048101928262001e53576000855562001e9f565b82601f1062001e6e57805160ff191683800117855562001e9f565b8280016001018555821562001e9f579182015b8281111562001e9e57825182559160200191906001019062001e81565b5b50905062001eae919062001eb2565b5090565b5b8082111562001ecd57600081600090555060010162001eb3565b5090565b600062001ee862001ee28462002b6e565b62002b45565b90508281526020810184848401111562001f0157600080fd5b62001f0e84828562002d8b565b509392505050565b600062001f2d62001f278462002ba4565b62002b45565b90508281526020810184848401111562001f4657600080fd5b62001f5384828562002d8b565b509392505050565b60008135905062001f6c8162003436565b92915050565b60008135905062001f838162003450565b92915050565b60008135905062001f9a816200346a565b92915050565b60008151905062001fb1816200346a565b92915050565b600082601f83011262001fc957600080fd5b813562001fdb84826020860162001ed1565b91505092915050565b600082601f83011262001ff657600080fd5b81356200200884826020860162001f16565b91505092915050565b600081359050620020228162003484565b92915050565b6000602082840312156200203b57600080fd5b60006200204b8482850162001f5b565b91505092915050565b600080604083850312156200206857600080fd5b6000620020788582860162001f5b565b92505060206200208b8582860162001f5b565b9150509250929050565b600080600060608486031215620020ab57600080fd5b6000620020bb8682870162001f5b565b9350506020620020ce8682870162001f5b565b9250506040620020e18682870162002011565b9150509250925092565b600080600080608085870312156200210257600080fd5b6000620021128782880162001f5b565b9450506020620021258782880162001f5b565b9350506040620021388782880162002011565b925050606085013567ffffffffffffffff8111156200215657600080fd5b620021648782880162001fb7565b91505092959194509250565b600080604083850312156200218457600080fd5b6000620021948582860162001f5b565b9250506020620021a78582860162001f72565b9150509250929050565b60008060408385031215620021c557600080fd5b6000620021d58582860162001f5b565b9250506020620021e88582860162002011565b9150509250929050565b6000602082840312156200220557600080fd5b6000620022158482850162001f89565b91505092915050565b6000602082840312156200223157600080fd5b6000620022418482850162001fa0565b91505092915050565b6000602082840312156200225d57600080fd5b600082013567ffffffffffffffff8111156200227857600080fd5b620022868482850162001fe4565b91505092915050565b600080600080600080600080610100898b031215620022ad57600080fd5b600089013567ffffffffffffffff811115620022c857600080fd5b620022d68b828c0162001fe4565b985050602089013567ffffffffffffffff811115620022f457600080fd5b620023028b828c0162001fe4565b975050604089013567ffffffffffffffff8111156200232057600080fd5b6200232e8b828c0162001fe4565b9650506060620023418b828c0162001f5b565b9550506080620023548b828c0162002011565b94505060a0620023678b828c0162002011565b93505060c06200237a8b828c0162002011565b92505060e06200238d8b828c0162001f5b565b9150509295985092959890939650565b600060208284031215620023b057600080fd5b6000620023c08482850162002011565b91505092915050565b620023d48162002ced565b82525050565b620023e58162002d01565b82525050565b6000620023f88262002bda565b62002404818562002bf0565b93506200241681856020860162002d9a565b620024218162002f7e565b840191505092915050565b620024378162002d63565b82525050565b60006200244a8262002be5565b62002456818562002c01565b93506200246881856020860162002d9a565b620024738162002f7e565b840191505092915050565b60006200248b8262002be5565b62002497818562002c12565b9350620024a981856020860162002d9a565b80840191505092915050565b6000620024c460328362002c01565b9150620024d18262002f8f565b604082019050919050565b6000620024eb601e8362002c01565b9150620024f88262002fde565b602082019050919050565b60006200251260258362002c01565b91506200251f8262003007565b604082019050919050565b600062002539601c8362002c01565b9150620025468262003056565b602082019050919050565b60006200256060248362002c01565b91506200256d826200307f565b604082019050919050565b60006200258760198362002c01565b91506200259482620030ce565b602082019050919050565b6000620025ae602c8362002c01565b9150620025bb82620030f7565b604082019050919050565b6000620025d560388362002c01565b9150620025e28262003146565b604082019050919050565b6000620025fc602a8362002c01565b9150620026098262003195565b604082019050919050565b60006200262360298362002c01565b91506200263082620031e4565b604082019050919050565b60006200264a602e8362002c01565b9150620026578262003233565b604082019050919050565b60006200267160208362002c01565b91506200267e8262003282565b602082019050919050565b60006200269860318362002c01565b9150620026a582620032ab565b604082019050919050565b6000620026bf602c8362002c01565b9150620026cc82620032fa565b604082019050919050565b6000620026e6602f8362002c01565b9150620026f38262003349565b604082019050919050565b60006200270d60218362002c01565b91506200271a8262003398565b604082019050919050565b60006200273460318362002c01565b91506200274182620033e7565b604082019050919050565b620027578162002d59565b82525050565b60006200276b82856200247e565b91506200277982846200247e565b91508190509392505050565b60006020820190506200279c6000830184620023c9565b92915050565b6000608082019050620027b96000830187620023c9565b620027c86020830186620023c9565b620027d760408301856200274c565b8181036060830152620027eb8184620023eb565b905095945050505050565b60006020820190506200280d6000830184620023da565b92915050565b60006020820190506200282a60008301846200242c565b92915050565b600060208201905081810360008301526200284c81846200243d565b905092915050565b600060e082019050818103600083015262002870818a6200243d565b905081810360208301526200288681896200243d565b905081810360408301526200289c81886200243d565b9050620028ad6060830187620023c9565b620028bc60808301866200274c565b620028cb60a08301856200274c565b620028da60c0830184620023c9565b98975050505050505050565b600060208201905081810360008301526200290181620024b5565b9050919050565b600060208201905081810360008301526200292381620024dc565b9050919050565b60006020820190508181036000830152620029458162002503565b9050919050565b6000602082019050818103600083015262002967816200252a565b9050919050565b60006020820190508181036000830152620029898162002551565b9050919050565b60006020820190508181036000830152620029ab8162002578565b9050919050565b60006020820190508181036000830152620029cd816200259f565b9050919050565b60006020820190508181036000830152620029ef81620025c6565b9050919050565b6000602082019050818103600083015262002a1181620025ed565b9050919050565b6000602082019050818103600083015262002a338162002614565b9050919050565b6000602082019050818103600083015262002a55816200263b565b9050919050565b6000602082019050818103600083015262002a778162002662565b9050919050565b6000602082019050818103600083015262002a998162002689565b9050919050565b6000602082019050818103600083015262002abb81620026b0565b9050919050565b6000602082019050818103600083015262002add81620026d7565b9050919050565b6000602082019050818103600083015262002aff81620026fe565b9050919050565b6000602082019050818103600083015262002b218162002725565b9050919050565b600060208201905062002b3f60008301846200274c565b92915050565b600062002b5162002b64565b905062002b5f828262002e06565b919050565b6000604051905090565b600067ffffffffffffffff82111562002b8c5762002b8b62002f4f565b5b62002b978262002f7e565b9050602081019050919050565b600067ffffffffffffffff82111562002bc25762002bc162002f4f565b5b62002bcd8262002f7e565b9050602081019050919050565b600081519050919050565b600081519050919050565b600082825260208201905092915050565b600082825260208201905092915050565b600081905092915050565b600062002c2a8262002d59565b915062002c378362002d59565b9250827fffffffffffffffffffffffffffffffffffffffffffffffffffffffffffffffff0382111562002c6f5762002c6e62002ec2565b5b828201905092915050565b600062002c878262002d59565b915062002c948362002d59565b92508262002ca75762002ca662002ef1565b5b828204905092915050565b600062002cbf8262002d59565b915062002ccc8362002d59565b92508282101562002ce25762002ce162002ec2565b5b828203905092915050565b600062002cfa8262002d39565b9050919050565b60008115159050919050565b60007fffffffff0000000000000000000000000000000000000000000000000000000082169050919050565b600073ffffffffffffffffffffffffffffffffffffffff82169050919050565b6000819050919050565b600062002d708262002d77565b9050919050565b600062002d848262002d39565b9050919050565b82818337600083830152505050565b60005b8381101562002dba57808201518184015260208101905062002d9d565b8381111562002dca576000848401525b50505050565b6000600282049050600182168062002de957607f821691505b6020821081141562002e005762002dff62002f20565b5b50919050565b62002e118262002f7e565b810181811067ffffffffffffffff8211171562002e335762002e3262002f4f565b5b80604052505050565b600062002e498262002d59565b91507fffffffffffffffffffffffffffffffffffffffffffffffffffffffffffffffff82141562002e7f5762002e7e62002ec2565b5b600182019050919050565b600062002e978262002d59565b915062002ea48362002d59565b92508262002eb75762002eb662002ef1565b5b828206905092915050565b7f4e487b7100000000000000000000000000000000000000000000000000000000600052601160045260246000fd5b7f4e487b7100000000000000000000000000000000000000000000000000000000600052601260045260246000fd5b7f4e487b7100000000000000000000000000000000000000000000000000000000600052602260045260246000fd5b7f4e487b7100000000000000000000000000000000000000000000000000000000600052604160045260246000fd5b6000601f19601f8301169050919050565b7f4552433732313a207472616e7366657220746f206e6f6e20455243373231526560008201527f63656976657220696d706c656d656e7465720000000000000000000000000000602082015250565b7f496e73756666696369656e742066756e647320666f72204d696e74696e670000600082015250565b7f4552433732313a207472616e736665722066726f6d20696e636f72726563742060008201527f6f776e6572000000000000000000000000000000000000000000000000000000602082015250565b7f4552433732313a20746f6b656e20616c7265616479206d696e74656400000000600082015250565b7f4552433732313a207472616e7366657220746f20746865207a65726f2061646460008201527f7265737300000000000000000000000000000000000000000000000000000000602082015250565b7f4552433732313a20617070726f766520746f2063616c6c657200000000000000600082015250565b7f4552433732313a206f70657261746f7220717565727920666f72206e6f6e657860008201527f697374656e7420746f6b656e0000000000000000000000000000000000000000602082015250565b7f4552433732313a20617070726f76652063616c6c6572206973206e6f74206f7760008201527f6e6572206e6f7220617070726f76656420666f7220616c6c0000000000000000602082015250565b7f4552433732313a2062616c616e636520717565727920666f7220746865207a6560008201527f726f206164647265737300000000000000000000000000000000000000000000602082015250565b7f4552433732313a206f776e657220717565727920666f72206e6f6e657869737460008201527f656e7420746f6b656e0000000000000000000000000000000000000000000000602082015250565b7f45524337323155524953746f726167653a2055524920736574206f66206e6f6e60008201527f6578697374656e7420746f6b656e000000000000000000000000000000000000602082015250565b7f4552433732313a206d696e7420746f20746865207a65726f2061646472657373600082015250565b7f45524337323155524953746f726167653a2055524920717565727920666f722060008201527f6e6f6e6578697374656e7420746f6b656e000000000000000000000000000000602082015250565b7f4552433732313a20617070726f76656420717565727920666f72206e6f6e657860008201527f697374656e7420746f6b656e0000000000000000000000000000000000000000602082015250565b7f4552433732314d657461646174613a2055524920717565727920666f72206e6f60008201527f6e6578697374656e7420746f6b656e0000000000000000000000000000000000602082015250565b7f4552433732313a20617070726f76616c20746f2063757272656e74206f776e6560008201527f7200000000000000000000000000000000000000000000000000000000000000602082015250565b7f4552433732313a207472616e736665722063616c6c6572206973206e6f74206f60008201527f776e6572206e6f7220617070726f766564000000000000000000000000000000602082015250565b620034418162002ced565b81146200344d57600080fd5b50565b6200345b8162002d01565b81146200346757600080fd5b50565b620034758162002d0d565b81146200348157600080fd5b50565b6200348f8162002d59565b81146200349b57600080fd5b5056fe60806040526040518060400160405280600581526020017f2e6a736f6e000000000000000000000000000000000000000000000000000000815250600c90805190602001906200005192919062000e67565b506103e0600d553480156200006557600080fd5b506040516200577a3803806200577a83398181016040528101906200008b919062000ffa565b86868160009080519060200190620000a592919062000e67565b508060019080519060200190620000be92919062000e67565b505050620000e1620000d5620001b160201b60201c565b620001b960201b60201c565b83600e60006101000a81548173ffffffffffffffffffffffffffffffffffffffff021916908373ffffffffffffffffffffffffffffffffffffffff16021790555082600f819055506001601060008673ffffffffffffffffffffffffffffffffffffffff1673ffffffffffffffffffffffffffffffffffffffff16815260200190815260200160002060006101000a81548160ff02191690831515021790555062000192856200027f60201b60201c565b620001a481836200032a60201b60201c565b5050505050505062001799565b600033905090565b6000600a60009054906101000a900473ffffffffffffffffffffffffffffffffffffffff16905081600a60006101000a81548173ffffffffffffffffffffffffffffffffffffffff021916908373ffffffffffffffffffffffffffffffffffffffff1602179055508173ffffffffffffffffffffffffffffffffffffffff168173ffffffffffffffffffffffffffffffffffffffff167f8be0079c531659141344cd1fd0a4f28419497f9722a3daafe3b4186f6b6457e060405160405180910390a35050565b6200028f620001b160201b60201c565b73ffffffffffffffffffffffffffffffffffffffff16620002b5620003b360201b60201c565b73ffffffffffffffffffffffffffffffffffffffff16146200030e576040517f08c379a00000000000000000000000000000000000000000000000000000000081526004016200030590620012f4565b60405180910390fd5b80600b90805190602001906200032692919062000e67565b5050565b60006200033c620003dd60201b60201c565b9050600082116200034c57600080fd5b600d5482826200035d9190620013a2565b11156200036957600080fd5b6000600190505b828111620003ad57620003978482846200038b9190620013a2565b620003ea60201b60201c565b8080620003a49062001546565b91505062000370565b50505050565b6000600a60009054906101000a900473ffffffffffffffffffffffffffffffffffffffff16905090565b6000600880549050905090565b6200040c8282604051806020016040528060008152506200041060201b60201c565b5050565b6200042283836200047e60201b60201c565b6200043760008484846200067860201b60201c565b62000479576040517f08c379a000000000000000000000000000000000000000000000000000000000815260040162000470906200126c565b60405180910390fd5b505050565b600073ffffffffffffffffffffffffffffffffffffffff168273ffffffffffffffffffffffffffffffffffffffff161415620004f1576040517f08c379a0000000000000000000000000000000000000000000000000000000008152600401620004e890620012d2565b60405180910390fd5b62000502816200083260201b60201c565b1562000545576040517f08c379a00000000000000000000000000000000000000000000000000000000081526004016200053c906200128e565b60405180910390fd5b62000559600083836200089e60201b60201c565b6001600360008473ffffffffffffffffffffffffffffffffffffffff1673ffffffffffffffffffffffffffffffffffffffff1681526020019081526020016000206000828254620005ab9190620013a2565b92505081905550816002600083815260200190815260200160002060006101000a81548173ffffffffffffffffffffffffffffffffffffffff021916908373ffffffffffffffffffffffffffffffffffffffff160217905550808273ffffffffffffffffffffffffffffffffffffffff16600073ffffffffffffffffffffffffffffffffffffffff167fddf252ad1be2c89b69c2b068fc378daa952ba7f163c4a11628f55a4df523b3ef60405160405180910390a46200067460008383620009e560201b60201c565b5050565b6000620006a68473ffffffffffffffffffffffffffffffffffffffff16620009ea60201b620017081760201c565b1562000825578373ffffffffffffffffffffffffffffffffffffffff1663150b7a02620006d8620001b160201b60201c565b8786866040518563ffffffff1660e01b8152600401620006fc949392919062001218565b602060405180830381600087803b1580156200071757600080fd5b505af19250505080156200074b57506040513d601f19601f8201168201806040525081019062000748919062000fce565b60015b620007d4573d80600081146200077e576040519150601f19603f3d011682016040523d82523d6000602084013e62000783565b606091505b50600081511415620007cc576040517f08c379a0000000000000000000000000000000000000000000000000000000008152600401620007c3906200126c565b60405180910390fd5b805181602001fd5b63150b7a0260e01b7bffffffffffffffffffffffffffffffffffffffffffffffffffffffff1916817bffffffffffffffffffffffffffffffffffffffffffffffffffffffff1916149150506200082a565b600190505b949350505050565b60008073ffffffffffffffffffffffffffffffffffffffff166002600084815260200190815260200160002060009054906101000a900473ffffffffffffffffffffffffffffffffffffffff1673ffffffffffffffffffffffffffffffffffffffff1614159050919050565b620008b683838362000a0d60201b6200172b1760201c565b600073ffffffffffffffffffffffffffffffffffffffff168373ffffffffffffffffffffffffffffffffffffffff1614156200090357620008fd8162000a1260201b60201c565b6200094b565b8173ffffffffffffffffffffffffffffffffffffffff168373ffffffffffffffffffffffffffffffffffffffff16146200094a5762000949838262000a5b60201b60201c565b5b5b600073ffffffffffffffffffffffffffffffffffffffff168273ffffffffffffffffffffffffffffffffffffffff1614156200099857620009928162000bd860201b60201c565b620009e0565b8273ffffffffffffffffffffffffffffffffffffffff168273ffffffffffffffffffffffffffffffffffffffff1614620009df57620009de828262000d2060201b60201c565b5b5b505050565b505050565b6000808273ffffffffffffffffffffffffffffffffffffffff163b119050919050565b505050565b6008805490506009600083815260200190815260200160002081905550600881908060018154018082558091505060019003906000526020600020016000909190919091505550565b6000600162000a758462000dac60201b620010cb1760201c565b62000a819190620013ff565b905060006007600084815260200190815260200160002054905081811462000b67576000600660008673ffffffffffffffffffffffffffffffffffffffff1673ffffffffffffffffffffffffffffffffffffffff168152602001908152602001600020600084815260200190815260200160002054905080600660008773ffffffffffffffffffffffffffffffffffffffff1673ffffffffffffffffffffffffffffffffffffffff168152602001908152602001600020600084815260200190815260200160002081905550816007600083815260200190815260200160002081905550505b6007600084815260200190815260200160002060009055600660008573ffffffffffffffffffffffffffffffffffffffff1673ffffffffffffffffffffffffffffffffffffffff16815260200190815260200160002060008381526020019081526020016000206000905550505050565b6000600160088054905062000bee9190620013ff565b905060006009600084815260200190815260200160002054905060006008838154811062000c45577f4e487b7100000000000000000000000000000000000000000000000000000000600052603260045260246000fd5b90600052602060002001549050806008838154811062000c8e577f4e487b7100000000000000000000000000000000000000000000000000000000600052603260045260246000fd5b90600052602060002001819055508160096000838152602001908152602001600020819055506009600085815260200190815260200160002060009055600880548062000d04577f4e487b7100000000000000000000000000000000000000000000000000000000600052603160045260246000fd5b6001900381819060005260206000200160009055905550505050565b600062000d388362000dac60201b620010cb1760201c565b905081600660008573ffffffffffffffffffffffffffffffffffffffff1673ffffffffffffffffffffffffffffffffffffffff168152602001908152602001600020600083815260200190815260200160002081905550806007600084815260200190815260200160002081905550505050565b60008073ffffffffffffffffffffffffffffffffffffffff168273ffffffffffffffffffffffffffffffffffffffff16141562000e20576040517f08c379a000000000000000000000000000000000000000000000000000000000815260040162000e1790620012b0565b60405180910390fd5b600360008373ffffffffffffffffffffffffffffffffffffffff1673ffffffffffffffffffffffffffffffffffffffff168152602001908152602001600020549050919050565b82805462000e7590620014da565b90600052602060002090601f01602090048101928262000e99576000855562000ee5565b82601f1062000eb457805160ff191683800117855562000ee5565b8280016001018555821562000ee5579182015b8281111562000ee457825182559160200191906001019062000ec7565b5b50905062000ef4919062000ef8565b5090565b5b8082111562000f1357600081600090555060010162000ef9565b5090565b600062000f2e62000f28846200133f565b62001316565b90508281526020810184848401111562000f4757600080fd5b62000f54848285620014a4565b509392505050565b60008151905062000f6d816200174b565b92915050565b60008151905062000f848162001765565b92915050565b600082601f83011262000f9c57600080fd5b815162000fae84826020860162000f17565b91505092915050565b60008151905062000fc8816200177f565b92915050565b60006020828403121562000fe157600080fd5b600062000ff18482850162000f73565b91505092915050565b600080600080600080600060e0888a0312156200101657600080fd5b600088015167ffffffffffffffff8111156200103157600080fd5b6200103f8a828b0162000f8a565b975050602088015167ffffffffffffffff8111156200105d57600080fd5b6200106b8a828b0162000f8a565b965050604088015167ffffffffffffffff8111156200108957600080fd5b620010978a828b0162000f8a565b9550506060620010aa8a828b0162000f5c565b9450506080620010bd8a828b0162000fb7565b93505060a0620010d08a828b0162000fb7565b92505060c0620010e38a828b0162000f5c565b91505092959891949750929550565b620010fd816200143a565b82525050565b6000620011108262001375565b6200111c818562001380565b93506200112e818560208601620014a4565b620011398162001621565b840191505092915050565b60006200115360328362001391565b9150620011608262001632565b604082019050919050565b60006200117a601c8362001391565b9150620011878262001681565b602082019050919050565b6000620011a1602a8362001391565b9150620011ae82620016aa565b604082019050919050565b6000620011c860208362001391565b9150620011d582620016f9565b602082019050919050565b6000620011ef60208362001391565b9150620011fc8262001722565b602082019050919050565b62001212816200149a565b82525050565b60006080820190506200122f6000830187620010f2565b6200123e6020830186620010f2565b6200124d604083018562001207565b818103606083015262001261818462001103565b905095945050505050565b60006020820190508181036000830152620012878162001144565b9050919050565b60006020820190508181036000830152620012a9816200116b565b9050919050565b60006020820190508181036000830152620012cb8162001192565b9050919050565b60006020820190508181036000830152620012ed81620011b9565b9050919050565b600060208201905081810360008301526200130f81620011e0565b9050919050565b60006200132262001335565b905062001330828262001510565b919050565b6000604051905090565b600067ffffffffffffffff8211156200135d576200135c620015f2565b5b620013688262001621565b9050602081019050919050565b600081519050919050565b600082825260208201905092915050565b600082825260208201905092915050565b6000620013af826200149a565b9150620013bc836200149a565b9250827fffffffffffffffffffffffffffffffffffffffffffffffffffffffffffffffff03821115620013f457620013f362001594565b5b828201905092915050565b60006200140c826200149a565b915062001419836200149a565b9250828210156200142f576200142e62001594565b5b828203905092915050565b600062001447826200147a565b9050919050565b60007fffffffff0000000000000000000000000000000000000000000000000000000082169050919050565b600073ffffffffffffffffffffffffffffffffffffffff82169050919050565b6000819050919050565b60005b83811015620014c4578082015181840152602081019050620014a7565b83811115620014d4576000848401525b50505050565b60006002820490506001821680620014f357607f821691505b602082108114156200150a5762001509620015c3565b5b50919050565b6200151b8262001621565b810181811067ffffffffffffffff821117156200153d576200153c620015f2565b5b80604052505050565b600062001553826200149a565b91507fffffffffffffffffffffffffffffffffffffffffffffffffffffffffffffffff82141562001589576200158862001594565b5b600182019050919050565b7f4e487b7100000000000000000000000000000000000000000000000000000000600052601160045260246000fd5b7f4e487b7100000000000000000000000000000000000000000000000000000000600052602260045260246000fd5b7f4e487b7100000000000000000000000000000000000000000000000000000000600052604160045260246000fd5b6000601f19601f8301169050919050565b7f4552433732313a207472616e7366657220746f206e6f6e20455243373231526560008201527f63656976657220696d706c656d656e7465720000000000000000000000000000602082015250565b7f4552433732313a20746f6b656e20616c7265616479206d696e74656400000000600082015250565b7f4552433732313a2062616c616e636520717565727920666f7220746865207a6560008201527f726f206164647265737300000000000000000000000000000000000000000000602082015250565b7f4552433732313a206d696e7420746f20746865207a65726f2061646472657373600082015250565b7f4f776e61626c653a2063616c6c6572206973206e6f7420746865206f776e6572600082015250565b62001756816200143a565b81146200176257600080fd5b50565b62001770816200144e565b81146200177c57600080fd5b50565b6200178a816200149a565b81146200179657600080fd5b50565b613fd180620017a96000396000f3fe6080604052600436106101cd5760003560e01c80636352211e116100f7578063a22cb46511610095578063d5abeb0111610064578063d5abeb011461066e578063da3ef23f14610699578063e985e9c5146106c2578063f2fde38b146106ff576101cd565b8063a22cb465146105b4578063b88d4fde146105dd578063c668286214610606578063c87b56dd14610631576101cd565b8063715018a6116100d1578063715018a61461051c5780638da5cb5b146105335780638fbceaad1461055e57806395d89b4114610589576101cd565b80636352211e146104775780636c0360eb146104b457806370a08231146104df576101cd565b80632f745c591161016f57806343bc16121161013e57806343bc1612146103a95780634f6ccce7146103d457806355f804b3146104115780635600d2fa1461043a576101cd565b80632f745c591461031d5780633ccfd60b1461035a57806340c10f191461036457806342842e0e14610380576101cd565b8063095ea7b3116101ab578063095ea7b31461027757806318160ddd146102a057806323b872dd146102cb5780632836be24146102f4576101cd565b806301ffc9a7146101d257806306fdde031461020f578063081812fc1461023a575b600080fd5b3480156101de57600080fd5b506101f960048036038101906101f49190612dec565b610728565b6040516102069190613360565b60405180910390f35b34801561021b57600080fd5b506102246107a2565b604051610231919061337b565b60405180910390f35b34801561024657600080fd5b50610261600480360381019061025c9190612e7f565b610834565b60405161026e91906132f9565b60405180910390f35b34801561028357600080fd5b5061029e60048036038101906102999190612db0565b6108b9565b005b3480156102ac57600080fd5b506102b56109d1565b6040516102c291906135fd565b60405180910390f35b3480156102d757600080fd5b506102f260048036038101906102ed9190612caa565b6109de565b005b34801561030057600080fd5b5061031b60048036038101906103169190612d74565b610aa1565b005b34801561032957600080fd5b50610344600480360381019061033f9190612db0565b610b8c565b60405161035191906135fd565b60405180910390f35b610362610c31565b005b61037e60048036038101906103799190612db0565b610d26565b005b34801561038c57600080fd5b506103a760048036038101906103a29190612caa565b610d95565b005b3480156103b557600080fd5b506103be610e18565b6040516103cb91906132f9565b60405180910390f35b3480156103e057600080fd5b506103fb60048036038101906103f69190612e7f565b610e3e565b60405161040891906135fd565b60405180910390f35b34801561041d57600080fd5b5061043860048036038101906104339190612e3e565b610ed5565b005b34801561044657600080fd5b50610461600480360381019061045c9190612c45565b610f6b565b60405161046e9190613360565b60405180910390f35b34801561048357600080fd5b5061049e60048036038101906104999190612e7f565b610f8b565b6040516104ab91906132f9565b60405180910390f35b3480156104c057600080fd5b506104c961103d565b6040516104d6919061337b565b60405180910390f35b3480156104eb57600080fd5b5061050660048036038101906105019190612c45565b6110cb565b60405161051391906135fd565b60405180910390f35b34801561052857600080fd5b50610531611183565b005b34801561053f57600080fd5b5061054861120b565b60405161055591906132f9565b60405180910390f35b34801561056a57600080fd5b50610573611235565b60405161058091906135fd565b60405180910390f35b34801561059557600080fd5b5061059e61123b565b6040516105ab919061337b565b60405180910390f35b3480156105c057600080fd5b506105db60048036038101906105d69190612d74565b6112cd565b005b3480156105e957600080fd5b5061060460048036038101906105ff9190612cf9565b6112e3565b005b34801561061257600080fd5b5061061b6113a8565b604051610628919061337b565b60405180910390f35b34801561063d57600080fd5b5061065860048036038101906106539190612e7f565b611436565b604051610665919061337b565b60405180910390f35b34801561067a57600080fd5b506106836114e0565b60405161069091906135fd565b60405180910390f35b3480156106a557600080fd5b506106c060048036038101906106bb9190612e3e565b6114e6565b005b3480156106ce57600080fd5b506106e960048036038101906106e49190612c6e565b61157c565b6040516106f69190613360565b60405180910390f35b34801561070b57600080fd5b5061072660048036038101906107219190612c45565b611610565b005b60007f780e9d63000000000000000000000000000000000000000000000000000000007bffffffffffffffffffffffffffffffffffffffffffffffffffffffff1916827bffffffffffffffffffffffffffffffffffffffffffffffffffffffff1916148061079b575061079a82611730565b5b9050919050565b6060600080546107b190613873565b80601f01602080910402602001604051908101604052809291908181526020018280546107dd90613873565b801561082a5780601f106107ff5761010080835404028352916020019161082a565b820191906000526020600020905b81548152906001019060200180831161080d57829003601f168201915b5050505050905090565b600061083f82611812565b61087e576040517f08c379a00000000000000000000000000000000000000000000000000000000081526004016108759061353d565b60405180910390fd5b6004600083815260200190815260200160002060009054906101000a900473ffffffffffffffffffffffffffffffffffffffff169050919050565b60006108c482610f8b565b90508073ffffffffffffffffffffffffffffffffffffffff168373ffffffffffffffffffffffffffffffffffffffff161415610935576040517f08c379a000000000000000000000000000000000000000000000000000000000815260040161092c9061359d565b60405180910390fd5b8073ffffffffffffffffffffffffffffffffffffffff1661095461187e565b73ffffffffffffffffffffffffffffffffffffffff16148061098357506109828161097d61187e565b61157c565b5b6109c2576040517f08c379a00000000000000000000000000000000000000000000000000000000081526004016109b9906134bd565b60405180910390fd5b6109cc8383611886565b505050565b6000600880549050905090565b6109ef6109e961187e565b8261193f565b610a2e576040517f08c379a0000000000000000000000000000000000000000000000000000000008152600401610a25906135bd565b60405180910390fd5b60001515601060008573ffffffffffffffffffffffffffffffffffffffff1673ffffffffffffffffffffffffffffffffffffffff16815260200190815260200160002060009054906101000a900460ff1615151415610a9157610a9083611a1d565b5b610a9c838383611a4f565b505050565b600e60009054906101000a900473ffffffffffffffffffffffffffffffffffffffff1673ffffffffffffffffffffffffffffffffffffffff163373ffffffffffffffffffffffffffffffffffffffff1614610b31576040517f08c379a0000000000000000000000000000000000000000000000000000000008152600401610b289061343d565b60405180910390fd5b80601060008473ffffffffffffffffffffffffffffffffffffffff1673ffffffffffffffffffffffffffffffffffffffff16815260200190815260200160002060006101000a81548160ff0219169083151502179055505050565b6000610b97836110cb565b8210610bd8576040517f08c379a0000000000000000000000000000000000000000000000000000000008152600401610bcf9061339d565b60405180910390fd5b600660008473ffffffffffffffffffffffffffffffffffffffff1673ffffffffffffffffffffffffffffffffffffffff168152602001908152602001600020600083815260200190815260200160002054905092915050565b610c3961187e565b73ffffffffffffffffffffffffffffffffffffffff16610c5761120b565b73ffffffffffffffffffffffffffffffffffffffff1614610cad576040517f08c379a0000000000000000000000000000000000000000000000000000000008152600401610ca49061355d565b60405180910390fd5b60003373ffffffffffffffffffffffffffffffffffffffff1647604051610cd3906132e4565b60006040518083038185875af1925050503d8060008114610d10576040519150601f19603f3d011682016040523d82523d6000602084013e610d15565b606091505b5050905080610d2357600080fd5b50565b6000610d306109d1565b905060008211610d3f57600080fd5b600d548282610d4e9190613702565b1115610d5957600080fd5b6000600190505b828111610d8f57610d7c848284610d779190613702565b611cb6565b8080610d87906138d6565b915050610d60565b50505050565b60001515601060008573ffffffffffffffffffffffffffffffffffffffff1673ffffffffffffffffffffffffffffffffffffffff16815260200190815260200160002060009054906101000a900460ff1615151415610df857610df783611a1d565b5b610e13838383604051806020016040528060008152506112e3565b505050565b600e60009054906101000a900473ffffffffffffffffffffffffffffffffffffffff1681565b6000610e486109d1565b8210610e89576040517f08c379a0000000000000000000000000000000000000000000000000000000008152600401610e80906135dd565b60405180910390fd5b60088281548110610ec3577f4e487b7100000000000000000000000000000000000000000000000000000000600052603260045260246000fd5b90600052602060002001549050919050565b610edd61187e565b73ffffffffffffffffffffffffffffffffffffffff16610efb61120b565b73ffffffffffffffffffffffffffffffffffffffff1614610f51576040517f08c379a0000000000000000000000000000000000000000000000000000000008152600401610f489061355d565b60405180910390fd5b80600b9080519060200190610f67929190612a69565b5050565b60106020528060005260406000206000915054906101000a900460ff1681565b6000806002600084815260200190815260200160002060009054906101000a900473ffffffffffffffffffffffffffffffffffffffff169050600073ffffffffffffffffffffffffffffffffffffffff168173ffffffffffffffffffffffffffffffffffffffff161415611034576040517f08c379a000000000000000000000000000000000000000000000000000000000815260040161102b906134fd565b60405180910390fd5b80915050919050565b600b805461104a90613873565b80601f016020809104026020016040519081016040528092919081815260200182805461107690613873565b80156110c35780601f10611098576101008083540402835291602001916110c3565b820191906000526020600020905b8154815290600101906020018083116110a657829003601f168201915b505050505081565b60008073ffffffffffffffffffffffffffffffffffffffff168273ffffffffffffffffffffffffffffffffffffffff16141561113c576040517f08c379a0000000000000000000000000000000000000000000000000000000008152600401611133906134dd565b60405180910390fd5b600360008373ffffffffffffffffffffffffffffffffffffffff1673ffffffffffffffffffffffffffffffffffffffff168152602001908152602001600020549050919050565b61118b61187e565b73ffffffffffffffffffffffffffffffffffffffff166111a961120b565b73ffffffffffffffffffffffffffffffffffffffff16146111ff576040517f08c379a00000000000000000000000000000000000000000000000000000000081526004016111f69061355d565b60405180910390fd5b6112096000611cd4565b565b6000600a60009054906101000a900473ffffffffffffffffffffffffffffffffffffffff16905090565b600f5481565b60606001805461124a90613873565b80601f016020809104026020016040519081016040528092919081815260200182805461127690613873565b80156112c35780601f10611298576101008083540402835291602001916112c3565b820191906000526020600020905b8154815290600101906020018083116112a657829003601f168201915b5050505050905090565b6112df6112d861187e565b8383611d9a565b5050565b6112f46112ee61187e565b8361193f565b611333576040517f08c379a000000000000000000000000000000000000000000000000000000000815260040161132a906135bd565b60405180910390fd5b60001515601060008673ffffffffffffffffffffffffffffffffffffffff1673ffffffffffffffffffffffffffffffffffffffff16815260200190815260200160002060009054906101000a900460ff16151514156113965761139584611a1d565b5b6113a284848484611f07565b50505050565b600c80546113b590613873565b80601f01602080910402602001604051908101604052809291908181526020018280546113e190613873565b801561142e5780601f106114035761010080835404028352916020019161142e565b820191906000526020600020905b81548152906001019060200180831161141157829003601f168201915b505050505081565b606061144182611812565b611480576040517f08c379a00000000000000000000000000000000000000000000000000000000081526004016114779061357d565b60405180910390fd5b600061148a611f63565b905060008151116114aa57604051806020016040528060008152506114d8565b806114b484611ff5565b600c6040516020016114c8939291906132b3565b6040516020818303038152906040525b915050919050565b600d5481565b6114ee61187e565b73ffffffffffffffffffffffffffffffffffffffff1661150c61120b565b73ffffffffffffffffffffffffffffffffffffffff1614611562576040517f08c379a00000000000000000000000000000000000000000000000000000000081526004016115599061355d565b60405180910390fd5b80600c9080519060200190611578929190612a69565b5050565b6000600560008473ffffffffffffffffffffffffffffffffffffffff1673ffffffffffffffffffffffffffffffffffffffff16815260200190815260200160002060008373ffffffffffffffffffffffffffffffffffffffff1673ffffffffffffffffffffffffffffffffffffffff16815260200190815260200160002060009054906101000a900460ff16905092915050565b61161861187e565b73ffffffffffffffffffffffffffffffffffffffff1661163661120b565b73ffffffffffffffffffffffffffffffffffffffff161461168c576040517f08c379a00000000000000000000000000000000000000000000000000000000081526004016116839061355d565b60405180910390fd5b600073ffffffffffffffffffffffffffffffffffffffff168173ffffffffffffffffffffffffffffffffffffffff1614156116fc576040517f08c379a00000000000000000000000000000000000000000000000000000000081526004016116f3906133dd565b60405180910390fd5b61170581611cd4565b50565b6000808273ffffffffffffffffffffffffffffffffffffffff163b119050919050565b505050565b60007f80ac58cd000000000000000000000000000000000000000000000000000000007bffffffffffffffffffffffffffffffffffffffffffffffffffffffff1916827bffffffffffffffffffffffffffffffffffffffffffffffffffffffff191614806117fb57507f5b5e139f000000000000000000000000000000000000000000000000000000007bffffffffffffffffffffffffffffffffffffffffffffffffffffffff1916827bffffffffffffffffffffffffffffffffffffffffffffffffffffffff1916145b8061180b575061180a826121a2565b5b9050919050565b60008073ffffffffffffffffffffffffffffffffffffffff166002600084815260200190815260200160002060009054906101000a900473ffffffffffffffffffffffffffffffffffffffff1673ffffffffffffffffffffffffffffffffffffffff1614159050919050565b600033905090565b816004600083815260200190815260200160002060006101000a81548173ffffffffffffffffffffffffffffffffffffffff021916908373ffffffffffffffffffffffffffffffffffffffff160217905550808273ffffffffffffffffffffffffffffffffffffffff166118f983610f8b565b73ffffffffffffffffffffffffffffffffffffffff167f8c5be1e5ebec7d5bd14f71427d1e84f3dd0314c0f7b2291e5b200ac8c7c3b92560405160405180910390a45050565b600061194a82611812565b611989576040517f08c379a00000000000000000000000000000000000000000000000000000000081526004016119809061349d565b60405180910390fd5b600061199483610f8b565b90508073ffffffffffffffffffffffffffffffffffffffff168473ffffffffffffffffffffffffffffffffffffffff161480611a0357508373ffffffffffffffffffffffffffffffffffffffff166119eb84610834565b73ffffffffffffffffffffffffffffffffffffffff16145b80611a145750611a13818561157c565b5b91505092915050565b611a4c81600e60009054906101000a900473ffffffffffffffffffffffffffffffffffffffff16600f546109de565b50565b8273ffffffffffffffffffffffffffffffffffffffff16611a6f82610f8b565b73ffffffffffffffffffffffffffffffffffffffff1614611ac5576040517f08c379a0000000000000000000000000000000000000000000000000000000008152600401611abc906133fd565b60405180910390fd5b600073ffffffffffffffffffffffffffffffffffffffff168273ffffffffffffffffffffffffffffffffffffffff161415611b35576040517f08c379a0000000000000000000000000000000000000000000000000000000008152600401611b2c9061345d565b60405180910390fd5b611b4083838361220c565b611b4b600082611886565b6001600360008573ffffffffffffffffffffffffffffffffffffffff1673ffffffffffffffffffffffffffffffffffffffff1681526020019081526020016000206000828254611b9b9190613789565b925050819055506001600360008473ffffffffffffffffffffffffffffffffffffffff1673ffffffffffffffffffffffffffffffffffffffff1681526020019081526020016000206000828254611bf29190613702565b92505081905550816002600083815260200190815260200160002060006101000a81548173ffffffffffffffffffffffffffffffffffffffff021916908373ffffffffffffffffffffffffffffffffffffffff160217905550808273ffffffffffffffffffffffffffffffffffffffff168473ffffffffffffffffffffffffffffffffffffffff167fddf252ad1be2c89b69c2b068fc378daa952ba7f163c4a11628f55a4df523b3ef60405160405180910390a4611cb1838383612320565b505050565b611cd0828260405180602001604052806000815250612325565b5050565b6000600a60009054906101000a900473ffffffffffffffffffffffffffffffffffffffff16905081600a60006101000a81548173ffffffffffffffffffffffffffffffffffffffff021916908373ffffffffffffffffffffffffffffffffffffffff1602179055508173ffffffffffffffffffffffffffffffffffffffff168173ffffffffffffffffffffffffffffffffffffffff167f8be0079c531659141344cd1fd0a4f28419497f9722a3daafe3b4186f6b6457e060405160405180910390a35050565b8173ffffffffffffffffffffffffffffffffffffffff168373ffffffffffffffffffffffffffffffffffffffff161415611e09576040517f08c379a0000000000000000000000000000000000000000000000000000000008152600401611e009061347d565b60405180910390fd5b80600560008573ffffffffffffffffffffffffffffffffffffffff1673ffffffffffffffffffffffffffffffffffffffff16815260200190815260200160002060008473ffffffffffffffffffffffffffffffffffffffff1673ffffffffffffffffffffffffffffffffffffffff16815260200190815260200160002060006101000a81548160ff0219169083151502179055508173ffffffffffffffffffffffffffffffffffffffff168373ffffffffffffffffffffffffffffffffffffffff167f17307eab39ab6107e8899845ad3d59bd9653f200f220920489ca2b5937696c3183604051611efa9190613360565b60405180910390a3505050565b611f12848484611a4f565b611f1e84848484612380565b611f5d576040517f08c379a0000000000000000000000000000000000000000000000000000000008152600401611f54906133bd565b60405180910390fd5b50505050565b6060600b8054611f7290613873565b80601f0160208091040260200160405190810160405280929190818152602001828054611f9e90613873565b8015611feb5780601f10611fc057610100808354040283529160200191611feb565b820191906000526020600020905b815481529060010190602001808311611fce57829003601f168201915b5050505050905090565b6060600082141561203d576040518060400160405280600181526020017f3000000000000000000000000000000000000000000000000000000000000000815250905061219d565b600082905060005b6000821461206f578080612058906138d6565b915050600a826120689190613758565b9150612045565b60008167ffffffffffffffff8111156120b1577f4e487b7100000000000000000000000000000000000000000000000000000000600052604160045260246000fd5b6040519080825280601f01601f1916602001820160405280156120e35781602001600182028036833780820191505090505b5090505b60008514612196576001826120fc9190613789565b9150600a8561210b919061391f565b60306121179190613702565b60f81b818381518110612153577f4e487b7100000000000000000000000000000000000000000000000000000000600052603260045260246000fd5b60200101907effffffffffffffffffffffffffffffffffffffffffffffffffffffffffffff1916908160001a905350600a8561218f9190613758565b94506120e7565b8093505050505b919050565b60007f01ffc9a7000000000000000000000000000000000000000000000000000000007bffffffffffffffffffffffffffffffffffffffffffffffffffffffff1916827bffffffffffffffffffffffffffffffffffffffffffffffffffffffff1916149050919050565b61221783838361172b565b600073ffffffffffffffffffffffffffffffffffffffff168373ffffffffffffffffffffffffffffffffffffffff16141561225a5761225581612517565b612299565b8173ffffffffffffffffffffffffffffffffffffffff168373ffffffffffffffffffffffffffffffffffffffff1614612298576122978382612560565b5b5b600073ffffffffffffffffffffffffffffffffffffffff168273ffffffffffffffffffffffffffffffffffffffff1614156122dc576122d7816126cd565b61231b565b8273ffffffffffffffffffffffffffffffffffffffff168273ffffffffffffffffffffffffffffffffffffffff161461231a576123198282612810565b5b5b505050565b505050565b61232f838361288f565b61233c6000848484612380565b61237b576040517f08c379a0000000000000000000000000000000000000000000000000000000008152600401612372906133bd565b60405180910390fd5b505050565b60006123a18473ffffffffffffffffffffffffffffffffffffffff16611708565b1561250a578373ffffffffffffffffffffffffffffffffffffffff1663150b7a026123ca61187e565b8786866040518563ffffffff1660e01b81526004016123ec9493929190613314565b602060405180830381600087803b15801561240657600080fd5b505af192505050801561243757506040513d601f19601f820116820180604052508101906124349190612e15565b60015b6124ba573d8060008114612467576040519150601f19603f3d011682016040523d82523d6000602084013e61246c565b606091505b506000815114156124b2576040517f08c379a00000000000000000000000000000000000000000000000000000000081526004016124a9906133bd565b60405180910390fd5b805181602001fd5b63150b7a0260e01b7bffffffffffffffffffffffffffffffffffffffffffffffffffffffff1916817bffffffffffffffffffffffffffffffffffffffffffffffffffffffff19161491505061250f565b600190505b949350505050565b6008805490506009600083815260200190815260200160002081905550600881908060018154018082558091505060019003906000526020600020016000909190919091505550565b6000600161256d846110cb565b6125779190613789565b905060006007600084815260200190815260200160002054905081811461265c576000600660008673ffffffffffffffffffffffffffffffffffffffff1673ffffffffffffffffffffffffffffffffffffffff168152602001908152602001600020600084815260200190815260200160002054905080600660008773ffffffffffffffffffffffffffffffffffffffff1673ffffffffffffffffffffffffffffffffffffffff168152602001908152602001600020600084815260200190815260200160002081905550816007600083815260200190815260200160002081905550505b6007600084815260200190815260200160002060009055600660008573ffffffffffffffffffffffffffffffffffffffff1673ffffffffffffffffffffffffffffffffffffffff16815260200190815260200160002060008381526020019081526020016000206000905550505050565b600060016008805490506126e19190613789565b9050600060096000848152602001908152602001600020549050600060088381548110612737577f4e487b7100000000000000000000000000000000000000000000000000000000600052603260045260246000fd5b90600052602060002001549050806008838154811061277f577f4e487b7100000000000000000000000000000000000000000000000000000000600052603260045260246000fd5b9060005260206000200181905550816009600083815260200190815260200160002081905550600960008581526020019081526020016000206000905560088054806127f4577f4e487b7100000000000000000000000000000000000000000000000000000000600052603160045260246000fd5b6001900381819060005260206000200160009055905550505050565b600061281b836110cb565b905081600660008573ffffffffffffffffffffffffffffffffffffffff1673ffffffffffffffffffffffffffffffffffffffff168152602001908152602001600020600083815260200190815260200160002081905550806007600084815260200190815260200160002081905550505050565b600073ffffffffffffffffffffffffffffffffffffffff168273ffffffffffffffffffffffffffffffffffffffff1614156128ff576040517f08c379a00000000000000000000000000000000000000000000000000000000081526004016128f69061351d565b60405180910390fd5b61290881611812565b15612948576040517f08c379a000000000000000000000000000000000000000000000000000000000815260040161293f9061341d565b60405180910390fd5b6129546000838361220c565b6001600360008473ffffffffffffffffffffffffffffffffffffffff1673ffffffffffffffffffffffffffffffffffffffff16815260200190815260200160002060008282546129a49190613702565b92505081905550816002600083815260200190815260200160002060006101000a81548173ffffffffffffffffffffffffffffffffffffffff021916908373ffffffffffffffffffffffffffffffffffffffff160217905550808273ffffffffffffffffffffffffffffffffffffffff16600073ffffffffffffffffffffffffffffffffffffffff167fddf252ad1be2c89b69c2b068fc378daa952ba7f163c4a11628f55a4df523b3ef60405160405180910390a4612a6560008383612320565b5050565b828054612a7590613873565b90600052602060002090601f016020900481019282612a975760008555612ade565b82601f10612ab057805160ff1916838001178555612ade565b82800160010185558215612ade579182015b82811115612add578251825591602001919060010190612ac2565b5b509050612aeb9190612aef565b5090565b5b80821115612b08576000816000905550600101612af0565b5090565b6000612b1f612b1a8461363d565b613618565b905082815260208101848484011115612b3757600080fd5b612b42848285613831565b509392505050565b6000612b5d612b588461366e565b613618565b905082815260208101848484011115612b7557600080fd5b612b80848285613831565b509392505050565b600081359050612b9781613f3f565b92915050565b600081359050612bac81613f56565b92915050565b600081359050612bc181613f6d565b92915050565b600081519050612bd681613f6d565b92915050565b600082601f830112612bed57600080fd5b8135612bfd848260208601612b0c565b91505092915050565b600082601f830112612c1757600080fd5b8135612c27848260208601612b4a565b91505092915050565b600081359050612c3f81613f84565b92915050565b600060208284031215612c5757600080fd5b6000612c6584828501612b88565b91505092915050565b60008060408385031215612c8157600080fd5b6000612c8f85828601612b88565b9250506020612ca085828601612b88565b9150509250929050565b600080600060608486031215612cbf57600080fd5b6000612ccd86828701612b88565b9350506020612cde86828701612b88565b9250506040612cef86828701612c30565b9150509250925092565b60008060008060808587031215612d0f57600080fd5b6000612d1d87828801612b88565b9450506020612d2e87828801612b88565b9350506040612d3f87828801612c30565b925050606085013567ffffffffffffffff811115612d5c57600080fd5b612d6887828801612bdc565b91505092959194509250565b60008060408385031215612d8757600080fd5b6000612d9585828601612b88565b9250506020612da685828601612b9d565b9150509250929050565b60008060408385031215612dc357600080fd5b6000612dd185828601612b88565b9250506020612de285828601612c30565b9150509250929050565b600060208284031215612dfe57600080fd5b6000612e0c84828501612bb2565b91505092915050565b600060208284031215612e2757600080fd5b6000612e3584828501612bc7565b91505092915050565b600060208284031215612e5057600080fd5b600082013567ffffffffffffffff811115612e6a57600080fd5b612e7684828501612c06565b91505092915050565b600060208284031215612e9157600080fd5b6000612e9f84828501612c30565b91505092915050565b612eb1816137bd565b82525050565b612ec0816137cf565b82525050565b6000612ed1826136b4565b612edb81856136ca565b9350612eeb818560208601613840565b612ef481613a0c565b840191505092915050565b6000612f0a826136bf565b612f1481856136e6565b9350612f24818560208601613840565b612f2d81613a0c565b840191505092915050565b6000612f43826136bf565b612f4d81856136f7565b9350612f5d818560208601613840565b80840191505092915050565b60008154612f7681613873565b612f8081866136f7565b94506001821660008114612f9b5760018114612fac57612fdf565b60ff19831686528186019350612fdf565b612fb58561369f565b60005b83811015612fd757815481890152600182019150602081019050612fb8565b838801955050505b50505092915050565b6000612ff5602b836136e6565b915061300082613a1d565b604082019050919050565b60006130186032836136e6565b915061302382613a6c565b604082019050919050565b600061303b6026836136e6565b915061304682613abb565b604082019050919050565b600061305e6025836136e6565b915061306982613b0a565b604082019050919050565b6000613081601c836136e6565b915061308c82613b59565b602082019050919050565b60006130a4600b836136e6565b91506130af82613b82565b602082019050919050565b60006130c76024836136e6565b91506130d282613bab565b604082019050919050565b60006130ea6019836136e6565b91506130f582613bfa565b602082019050919050565b600061310d602c836136e6565b915061311882613c23565b604082019050919050565b60006131306038836136e6565b915061313b82613c72565b604082019050919050565b6000613153602a836136e6565b915061315e82613cc1565b604082019050919050565b60006131766029836136e6565b915061318182613d10565b604082019050919050565b60006131996020836136e6565b91506131a482613d5f565b602082019050919050565b60006131bc602c836136e6565b91506131c782613d88565b604082019050919050565b60006131df6020836136e6565b91506131ea82613dd7565b602082019050919050565b6000613202602f836136e6565b915061320d82613e00565b604082019050919050565b60006132256021836136e6565b915061323082613e4f565b604082019050919050565b60006132486000836136db565b915061325382613e9e565b600082019050919050565b600061326b6031836136e6565b915061327682613ea1565b604082019050919050565b600061328e602c836136e6565b915061329982613ef0565b604082019050919050565b6132ad81613827565b82525050565b60006132bf8286612f38565b91506132cb8285612f38565b91506132d78284612f69565b9150819050949350505050565b60006132ef8261323b565b9150819050919050565b600060208201905061330e6000830184612ea8565b92915050565b60006080820190506133296000830187612ea8565b6133366020830186612ea8565b61334360408301856132a4565b81810360608301526133558184612ec6565b905095945050505050565b60006020820190506133756000830184612eb7565b92915050565b600060208201905081810360008301526133958184612eff565b905092915050565b600060208201905081810360008301526133b681612fe8565b9050919050565b600060208201905081810360008301526133d68161300b565b9050919050565b600060208201905081810360008301526133f68161302e565b9050919050565b6000602082019050818103600083015261341681613051565b9050919050565b6000602082019050818103600083015261343681613074565b9050919050565b6000602082019050818103600083015261345681613097565b9050919050565b60006020820190508181036000830152613476816130ba565b9050919050565b60006020820190508181036000830152613496816130dd565b9050919050565b600060208201905081810360008301526134b681613100565b9050919050565b600060208201905081810360008301526134d681613123565b9050919050565b600060208201905081810360008301526134f681613146565b9050919050565b6000602082019050818103600083015261351681613169565b9050919050565b600060208201905081810360008301526135368161318c565b9050919050565b60006020820190508181036000830152613556816131af565b9050919050565b60006020820190508181036000830152613576816131d2565b9050919050565b60006020820190508181036000830152613596816131f5565b9050919050565b600060208201905081810360008301526135b681613218565b9050919050565b600060208201905081810360008301526135d68161325e565b9050919050565b600060208201905081810360008301526135f681613281565b9050919050565b600060208201905061361260008301846132a4565b92915050565b6000613622613633565b905061362e82826138a5565b919050565b6000604051905090565b600067ffffffffffffffff821115613658576136576139dd565b5b61366182613a0c565b9050602081019050919050565b600067ffffffffffffffff821115613689576136886139dd565b5b61369282613a0c565b9050602081019050919050565b60008190508160005260206000209050919050565b600081519050919050565b600081519050919050565b600082825260208201905092915050565b600081905092915050565b600082825260208201905092915050565b600081905092915050565b600061370d82613827565b915061371883613827565b9250827fffffffffffffffffffffffffffffffffffffffffffffffffffffffffffffffff0382111561374d5761374c613950565b5b828201905092915050565b600061376382613827565b915061376e83613827565b92508261377e5761377d61397f565b5b828204905092915050565b600061379482613827565b915061379f83613827565b9250828210156137b2576137b1613950565b5b828203905092915050565b60006137c882613807565b9050919050565b60008115159050919050565b60007fffffffff0000000000000000000000000000000000000000000000000000000082169050919050565b600073ffffffffffffffffffffffffffffffffffffffff82169050919050565b6000819050919050565b82818337600083830152505050565b60005b8381101561385e578082015181840152602081019050613843565b8381111561386d576000848401525b50505050565b6000600282049050600182168061388b57607f821691505b6020821081141561389f5761389e6139ae565b5b50919050565b6138ae82613a0c565b810181811067ffffffffffffffff821117156138cd576138cc6139dd565b5b80604052505050565b60006138e182613827565b91507fffffffffffffffffffffffffffffffffffffffffffffffffffffffffffffffff82141561391457613913613950565b5b600182019050919050565b600061392a82613827565b915061393583613827565b9250826139455761394461397f565b5b828206905092915050565b7f4e487b7100000000000000000000000000000000000000000000000000000000600052601160045260246000fd5b7f4e487b7100000000000000000000000000000000000000000000000000000000600052601260045260246000fd5b7f4e487b7100000000000000000000000000000000000000000000000000000000600052602260045260246000fd5b7f4e487b7100000000000000000000000000000000000000000000000000000000600052604160045260246000fd5b6000601f19601f8301169050919050565b7f455243373231456e756d657261626c653a206f776e657220696e646578206f7560008201527f74206f6620626f756e6473000000000000000000000000000000000000000000602082015250565b7f4552433732313a207472616e7366657220746f206e6f6e20455243373231526560008201527f63656976657220696d706c656d656e7465720000000000000000000000000000602082015250565b7f4f776e61626c653a206e6577206f776e657220697320746865207a65726f206160008201527f6464726573730000000000000000000000000000000000000000000000000000602082015250565b7f4552433732313a207472616e736665722066726f6d20696e636f72726563742060008201527f6f776e6572000000000000000000000000000000000000000000000000000000602082015250565b7f4552433732313a20746f6b656e20616c7265616479206d696e74656400000000600082015250565b7f617274697374206f6e6c79000000000000000000000000000000000000000000600082015250565b7f4552433732313a207472616e7366657220746f20746865207a65726f2061646460008201527f7265737300000000000000000000000000000000000000000000000000000000602082015250565b7f4552433732313a20617070726f766520746f2063616c6c657200000000000000600082015250565b7f4552433732313a206f70657261746f7220717565727920666f72206e6f6e657860008201527f697374656e7420746f6b656e0000000000000000000000000000000000000000602082015250565b7f4552433732313a20617070726f76652063616c6c6572206973206e6f74206f7760008201527f6e6572206e6f7220617070726f76656420666f7220616c6c0000000000000000602082015250565b7f4552433732313a2062616c616e636520717565727920666f7220746865207a6560008201527f726f206164647265737300000000000000000000000000000000000000000000602082015250565b7f4552433732313a206f776e657220717565727920666f72206e6f6e657869737460008201527f656e7420746f6b656e0000000000000000000000000000000000000000000000602082015250565b7f4552433732313a206d696e7420746f20746865207a65726f2061646472657373600082015250565b7f4552433732313a20617070726f76656420717565727920666f72206e6f6e657860008201527f697374656e7420746f6b656e0000000000000000000000000000000000000000602082015250565b7f4f776e61626c653a2063616c6c6572206973206e6f7420746865206f776e6572600082015250565b7f4552433732314d657461646174613a2055524920717565727920666f72206e6f60008201527f6e6578697374656e7420746f6b656e0000000000000000000000000000000000602082015250565b7f4552433732313a20617070726f76616c20746f2063757272656e74206f776e6560008201527f7200000000000000000000000000000000000000000000000000000000000000602082015250565b50565b7f4552433732313a207472616e736665722063616c6c6572206973206e6f74206f60008201527f776e6572206e6f7220617070726f766564000000000000000000000000000000602082015250565b7f455243373231456e756d657261626c653a20676c6f62616c20696e646578206f60008201527f7574206f6620626f756e64730000000000000000000000000000000000000000602082015250565b613f48816137bd565b8114613f5357600080fd5b50565b613f5f816137cf565b8114613f6a57600080fd5b50565b613f76816137db565b8114613f8157600080fd5b50565b613f8d81613827565b8114613f9857600080fd5b5056fea26469706673582212203bdf51711fb8d0f3746a01cb6dcd8543e13d103f553dd3c3e2091bc7c82f402a64736f6c63430008040033a2646970667358221220f6500490e99e39ccf8ba7d3151857d57045425a56349d0d7ff81d6c0e2d8d99764736f6c63430008040033",
  "linkReferences": {},
  "deployedLinkReferences": {}
}