{
  "_format": "hh-sol-artifact-1",
  "contractName": "FlokiMarketPlace",
  "sourceName": "contracts/FlokiMarketPlace.sol",
  "abi": [
    {
      "inputs": [],
      "stateMutability": "nonpayable",
      "type": "constructor"
    },
    {
      "anonymous": false,
      "inputs": [
        {
          "indexed": true,
          "internalType": "uint256",
          "name": "itemId",
          "type": "uint256"
        },
        {
          "indexed": true,
          "internalType": "address",
          "name": "nftContract",
          "type": "address"
        },
        {
          "indexed": true,
          "internalType": "uint256",
          "name": "tokenId",
          "type": "uint256"
        },
        {
          "indexed": false,
          "internalType": "address",
          "name": "seller",
          "type": "address"
        },
        {
          "indexed": false,
          "internalType": "address",
          "name": "owner",
          "type": "address"
        },
        {
          "indexed": false,
          "internalType": "uint256",
          "name": "price",
          "type": "uint256"
        }
      ],
      "name": "MarketItemCreated",
      "type": "event"
    },
    {
      "inputs": [
        {
          "internalType": "address",
          "name": "nftContract",
          "type": "address"
        },
        {
          "internalType": "uint256",
          "name": "tokenId",
          "type": "uint256"
        },
        {
          "internalType": "uint256",
          "name": "price",
          "type": "uint256"
        }
      ],
      "name": "createMarketItem",
      "outputs": [],
      "stateMutability": "payable",
      "type": "function"
    },
    {
      "inputs": [
        {
          "internalType": "address",
          "name": "nftContract",
          "type": "address"
        },
        {
          "internalType": "uint256",
          "name": "itemId",
          "type": "uint256"
        }
      ],
      "name": "createMarketSale",
      "outputs": [],
      "stateMutability": "payable",
      "type": "function"
    },
    {
      "inputs": [],
      "name": "fetchMarketItems",
      "outputs": [
        {
          "components": [
            {
              "internalType": "uint256",
              "name": "itemId",
              "type": "uint256"
            },
            {
              "internalType": "address",
              "name": "nftContract",
              "type": "address"
            },
            {
              "internalType": "uint256",
              "name": "tokenId",
              "type": "uint256"
            },
            {
              "internalType": "address payable",
              "name": "seller",
              "type": "address"
            },
            {
              "internalType": "address payable",
              "name": "owner",
              "type": "address"
            },
            {
              "internalType": "uint256",
              "name": "price",
              "type": "uint256"
            }
          ],
          "internalType": "struct FlokiMarketPlace.MarketItem[]",
          "name": "",
          "type": "tuple[]"
        }
      ],
      "stateMutability": "view",
      "type": "function"
    },
    {
      "inputs": [],
      "name": "fetchMyNFTs",
      "outputs": [
        {
          "components": [
            {
              "internalType": "uint256",
              "name": "itemId",
              "type": "uint256"
            },
            {
              "internalType": "address",
              "name": "nftContract",
              "type": "address"
            },
            {
              "internalType": "uint256",
              "name": "tokenId",
              "type": "uint256"
            },
            {
              "internalType": "address payable",
              "name": "seller",
              "type": "address"
            },
            {
              "internalType": "address payable",
              "name": "owner",
              "type": "address"
            },
            {
              "internalType": "uint256",
              "name": "price",
              "type": "uint256"
            }
          ],
          "internalType": "struct FlokiMarketPlace.MarketItem[]",
          "name": "",
          "type": "tuple[]"
        }
      ],
      "stateMutability": "view",
      "type": "function"
    },
    {
      "inputs": [
        {
          "internalType": "uint256",
          "name": "marketItemId",
          "type": "uint256"
        }
      ],
      "name": "getMarketItem",
      "outputs": [
        {
          "components": [
            {
              "internalType": "uint256",
              "name": "itemId",
              "type": "uint256"
            },
            {
              "internalType": "address",
              "name": "nftContract",
              "type": "address"
            },
            {
              "internalType": "uint256",
              "name": "tokenId",
              "type": "uint256"
            },
            {
              "internalType": "address payable",
              "name": "seller",
              "type": "address"
            },
            {
              "internalType": "address payable",
              "name": "owner",
              "type": "address"
            },
            {
              "internalType": "uint256",
              "name": "price",
              "type": "uint256"
            }
          ],
          "internalType": "struct FlokiMarketPlace.MarketItem",
          "name": "",
          "type": "tuple"
        }
      ],
      "stateMutability": "view",
      "type": "function"
    }
  ],
  "bytecode": "0x608060405267016345785d8a000060045534801561001c57600080fd5b50600160008190555033600360006101000a81548173ffffffffffffffffffffffffffffffffffffffff021916908373ffffffffffffffffffffffffffffffffffffffff160217905550611642806100756000396000f3fe60806040526004361061004a5760003560e01c80630f08efe01461004f578063202e37401461007a57806358eb2df5146100a5578063c23b139e146100c1578063c7be7a49146100dd575b600080fd5b34801561005b57600080fd5b5061006461011a565b6040516100719190611297565b60405180910390f35b34801561008657600080fd5b5061008f610415565b60405161009c9190611297565b60405180910390f35b6100bf60048036038101906100ba9190610fa5565b610794565b005b6100db60048036038101906100d69190610f69565b610acc565b005b3480156100e957600080fd5b5061010460048036038101906100ff9190610ff4565b610d56565b6040516101119190611339565b60405180910390f35b606060006101286001610ea3565b905060006101366002610ea3565b6101406001610ea3565b61014a91906113f4565b90506000808267ffffffffffffffff81111561018f577f4e487b7100000000000000000000000000000000000000000000000000000000600052604160045260246000fd5b6040519080825280602002602001820160405280156101c857816020015b6101b5610ec7565b8152602001906001900390816101ad5790505b50905060005b8481101561040a57600073ffffffffffffffffffffffffffffffffffffffff16600560006001846101ff919061139e565b815260200190815260200160002060040160009054906101000a900473ffffffffffffffffffffffffffffffffffffffff1673ffffffffffffffffffffffffffffffffffffffff1614156103f757600060018261025c919061139e565b90506000600560008381526020019081526020016000209050806040518060c0016040529081600082015481526020016001820160009054906101000a900473ffffffffffffffffffffffffffffffffffffffff1673ffffffffffffffffffffffffffffffffffffffff1673ffffffffffffffffffffffffffffffffffffffff168152602001600282015481526020016003820160009054906101000a900473ffffffffffffffffffffffffffffffffffffffff1673ffffffffffffffffffffffffffffffffffffffff1673ffffffffffffffffffffffffffffffffffffffff1681526020016004820160009054906101000a900473ffffffffffffffffffffffffffffffffffffffff1673ffffffffffffffffffffffffffffffffffffffff1673ffffffffffffffffffffffffffffffffffffffff1681526020016005820154815250508486815181106103da577f4e487b7100000000000000000000000000000000000000000000000000000000600052603260045260246000fd5b60200260200101819052506001856103f2919061139e565b945050505b808061040290611476565b9150506101ce565b508094505050505090565b606060006104236001610ea3565b905060008060005b838110156104cc573373ffffffffffffffffffffffffffffffffffffffff166005600060018461045b919061139e565b815260200190815260200160002060040160009054906101000a900473ffffffffffffffffffffffffffffffffffffffff1673ffffffffffffffffffffffffffffffffffffffff1614156104b9576001836104b6919061139e565b92505b80806104c490611476565b91505061042b565b5060008267ffffffffffffffff81111561050f577f4e487b7100000000000000000000000000000000000000000000000000000000600052604160045260246000fd5b60405190808252806020026020018201604052801561054857816020015b610535610ec7565b81526020019060019003908161052d5790505b50905060005b84811015610789573373ffffffffffffffffffffffffffffffffffffffff166005600060018461057e919061139e565b815260200190815260200160002060040160009054906101000a900473ffffffffffffffffffffffffffffffffffffffff1673ffffffffffffffffffffffffffffffffffffffff1614156107765760006001826105db919061139e565b90506000600560008381526020019081526020016000209050806040518060c0016040529081600082015481526020016001820160009054906101000a900473ffffffffffffffffffffffffffffffffffffffff1673ffffffffffffffffffffffffffffffffffffffff1673ffffffffffffffffffffffffffffffffffffffff168152602001600282015481526020016003820160009054906101000a900473ffffffffffffffffffffffffffffffffffffffff1673ffffffffffffffffffffffffffffffffffffffff1673ffffffffffffffffffffffffffffffffffffffff1681526020016004820160009054906101000a900473ffffffffffffffffffffffffffffffffffffffff1673ffffffffffffffffffffffffffffffffffffffff1673ffffffffffffffffffffffffffffffffffffffff168152602001600582015481525050848681518110610759577f4e487b7100000000000000000000000000000000000000000000000000000000600052603260045260246000fd5b6020026020010181905250600185610771919061139e565b945050505b808061078190611476565b91505061054e565b508094505050505090565b600260005414156107da576040517f08c379a00000000000000000000000000000000000000000000000000000000081526004016107d1906112f9565b60405180910390fd5b600260008190555060008111610825576040517f08c379a000000000000000000000000000000000000000000000000000000000815260040161081c90611319565b60405180910390fd5b6004543414610869576040517f08c379a0000000000000000000000000000000000000000000000000000000008152600401610860906112d9565b60405180910390fd5b6108736001610eb1565b600061087f6001610ea3565b90506040518060c001604052808281526020018573ffffffffffffffffffffffffffffffffffffffff1681526020018481526020013373ffffffffffffffffffffffffffffffffffffffff168152602001600073ffffffffffffffffffffffffffffffffffffffff16815260200183815250600560008381526020019081526020016000206000820151816000015560208201518160010160006101000a81548173ffffffffffffffffffffffffffffffffffffffff021916908373ffffffffffffffffffffffffffffffffffffffff1602179055506040820151816002015560608201518160030160006101000a81548173ffffffffffffffffffffffffffffffffffffffff021916908373ffffffffffffffffffffffffffffffffffffffff16021790555060808201518160040160006101000a81548173ffffffffffffffffffffffffffffffffffffffff021916908373ffffffffffffffffffffffffffffffffffffffff16021790555060a082015181600501559050508373ffffffffffffffffffffffffffffffffffffffff166323b872dd3330866040518463ffffffff1660e01b8152600401610a3793929190611260565b600060405180830381600087803b158015610a5157600080fd5b505af1158015610a65573d6000803e3d6000fd5b50505050828473ffffffffffffffffffffffffffffffffffffffff16827f2ad024d53a0dc50c130967f8d4941927ee087ea31394cebb2b9599d3706c9c0033600087604051610ab693929190611260565b60405180910390a4506001600081905550505050565b60026000541415610b12576040517f08c379a0000000000000000000000000000000000000000000000000000000008152600401610b09906112f9565b60405180910390fd5b6002600081905550600060056000838152602001908152602001600020600501549050600060056000848152602001908152602001600020600201549050813414610b92576040517f08c379a0000000000000000000000000000000000000000000000000000000008152600401610b89906112b9565b60405180910390fd5b6005600084815260200190815260200160002060030160009054906101000a900473ffffffffffffffffffffffffffffffffffffffff1673ffffffffffffffffffffffffffffffffffffffff166108fc349081150290604051600060405180830381858888f19350505050158015610c0e573d6000803e3d6000fd5b508373ffffffffffffffffffffffffffffffffffffffff166323b872dd3033846040518463ffffffff1660e01b8152600401610c4c93929190611260565b600060405180830381600087803b158015610c6657600080fd5b505af1158015610c7a573d6000803e3d6000fd5b50505050336005600085815260200190815260200160002060040160006101000a81548173ffffffffffffffffffffffffffffffffffffffff021916908373ffffffffffffffffffffffffffffffffffffffff160217905550610cdd6002610eb1565b600360009054906101000a900473ffffffffffffffffffffffffffffffffffffffff1673ffffffffffffffffffffffffffffffffffffffff166108fc6004549081150290604051600060405180830381858888f19350505050158015610d47573d6000803e3d6000fd5b50505060016000819055505050565b610d5e610ec7565b600560008381526020019081526020016000206040518060c0016040529081600082015481526020016001820160009054906101000a900473ffffffffffffffffffffffffffffffffffffffff1673ffffffffffffffffffffffffffffffffffffffff1673ffffffffffffffffffffffffffffffffffffffff168152602001600282015481526020016003820160009054906101000a900473ffffffffffffffffffffffffffffffffffffffff1673ffffffffffffffffffffffffffffffffffffffff1673ffffffffffffffffffffffffffffffffffffffff1681526020016004820160009054906101000a900473ffffffffffffffffffffffffffffffffffffffff1673ffffffffffffffffffffffffffffffffffffffff1673ffffffffffffffffffffffffffffffffffffffff1681526020016005820154815250509050919050565b600081600001549050919050565b6001816000016000828254019250508190555050565b6040518060c0016040528060008152602001600073ffffffffffffffffffffffffffffffffffffffff16815260200160008152602001600073ffffffffffffffffffffffffffffffffffffffff168152602001600073ffffffffffffffffffffffffffffffffffffffff168152602001600081525090565b600081359050610f4e816115de565b92915050565b600081359050610f63816115f5565b92915050565b60008060408385031215610f7c57600080fd5b6000610f8a85828601610f3f565b9250506020610f9b85828601610f54565b9150509250929050565b600080600060608486031215610fba57600080fd5b6000610fc886828701610f3f565b9350506020610fd986828701610f54565b9250506040610fea86828701610f54565b9150509250925092565b60006020828403121561100657600080fd5b600061101484828501610f54565b91505092915050565b6000611029838361114c565b60c08301905092915050565b61103e8161143a565b82525050565b61104d81611428565b82525050565b61105c81611428565b82525050565b600061106d82611364565b611077818561137c565b935061108283611354565b8060005b838110156110b357815161109a888261101d565b97506110a58361136f565b925050600181019050611086565b5085935050505092915050565b60006110cd60408361138d565b91506110d8826114ee565b604082019050919050565b60006110f060248361138d565b91506110fb8261153d565b604082019050919050565b6000611113601f8361138d565b915061111e8261158c565b602082019050919050565b6000611136601c8361138d565b9150611141826115b5565b602082019050919050565b60c0820160008201516111626000850182611242565b5060208201516111756020850182611044565b5060408201516111886040850182611242565b50606082015161119b6060850182611035565b5060808201516111ae6080850182611035565b5060a08201516111c160a0850182611242565b50505050565b60c0820160008201516111dd6000850182611242565b5060208201516111f06020850182611044565b5060408201516112036040850182611242565b5060608201516112166060850182611035565b5060808201516112296080850182611035565b5060a082015161123c60a0850182611242565b50505050565b61124b8161146c565b82525050565b61125a8161146c565b82525050565b60006060820190506112756000830186611053565b6112826020830185611053565b61128f6040830184611251565b949350505050565b600060208201905081810360008301526112b18184611062565b905092915050565b600060208201905081810360008301526112d2816110c0565b9050919050565b600060208201905081810360008301526112f2816110e3565b9050919050565b6000602082019050818103600083015261131281611106565b9050919050565b6000602082019050818103600083015261133281611129565b9050919050565b600060c08201905061134e60008301846111c7565b92915050565b6000819050602082019050919050565b600081519050919050565b6000602082019050919050565b600082825260208201905092915050565b600082825260208201905092915050565b60006113a98261146c565b91506113b48361146c565b9250827fffffffffffffffffffffffffffffffffffffffffffffffffffffffffffffffff038211156113e9576113e86114bf565b5b828201905092915050565b60006113ff8261146c565b915061140a8361146c565b92508282101561141d5761141c6114bf565b5b828203905092915050565b60006114338261144c565b9050919050565b60006114458261144c565b9050919050565b600073ffffffffffffffffffffffffffffffffffffffff82169050919050565b6000819050919050565b60006114818261146c565b91507fffffffffffffffffffffffffffffffffffffffffffffffffffffffffffffffff8214156114b4576114b36114bf565b5b600182019050919050565b7f4e487b7100000000000000000000000000000000000000000000000000000000600052601160045260246000fd5b7f506c65617365207375626d6974207468652061736b696e67207072696365206960008201527f6e206f7264657220746f20636f6d706c65746520746865207075726368617365602082015250565b7f5072696365206d75737420626520657175616c20746f206c697374696e67207060008201527f7269636500000000000000000000000000000000000000000000000000000000602082015250565b7f5265656e7472616e637947756172643a207265656e7472616e742063616c6c00600082015250565b7f5072696365206d757374206265206174206c6561737420312077656900000000600082015250565b6115e781611428565b81146115f257600080fd5b50565b6115fe8161146c565b811461160957600080fd5b5056fea26469706673582212201cf195aacc8a74a907fd4cdbe0286b19dcaf088cd2c819308db58e6e779c484064736f6c63430008040033",
  "linkReferences": {},
  "deployedLinkReferences": {}
}