{
  "_format": "hh-sol-artifact-1",
  "contractName": "FlokiMarketPlace",
  "sourceName": "contracts/FlokiMarketPlace.sol",
  "abi": [
    {
      "inputs": [],
      "stateMutability": "nonpayable",
      "type": "constructor"
    },
    {
      "anonymous": false,
      "inputs": [
        {
          "indexed": false,
          "internalType": "address",
          "name": "user",
          "type": "address"
        },
        {
          "indexed": false,
          "internalType": "uint256",
          "name": "amount",
          "type": "uint256"
        }
      ],
      "name": "ClaimFunds",
      "type": "event"
    },
    {
      "anonymous": false,
      "inputs": [
        {
          "indexed": false,
          "internalType": "uint256",
          "name": "offerId",
          "type": "uint256"
        },
        {
          "indexed": false,
          "internalType": "uint256",
          "name": "id",
          "type": "uint256"
        },
        {
          "indexed": false,
          "internalType": "address",
          "name": "user",
          "type": "address"
        },
        {
          "indexed": false,
          "internalType": "uint256",
          "name": "price",
          "type": "uint256"
        },
        {
          "indexed": false,
          "internalType": "bool",
          "name": "fulfilled",
          "type": "bool"
        },
        {
          "indexed": false,
          "internalType": "bool",
          "name": "cancelled",
          "type": "bool"
        },
        {
          "indexed": false,
          "internalType": "address",
          "name": "contract_address",
          "type": "address"
        }
      ],
      "name": "Offer",
      "type": "event"
    },
    {
      "anonymous": false,
      "inputs": [
        {
          "indexed": false,
          "internalType": "uint256",
          "name": "offerId",
          "type": "uint256"
        },
        {
          "indexed": false,
          "internalType": "uint256",
          "name": "id",
          "type": "uint256"
        },
        {
          "indexed": false,
          "internalType": "address",
          "name": "owner",
          "type": "address"
        }
      ],
      "name": "OfferCancelled",
      "type": "event"
    },
    {
      "anonymous": false,
      "inputs": [
        {
          "indexed": false,
          "internalType": "uint256",
          "name": "offerId",
          "type": "uint256"
        },
        {
          "indexed": false,
          "internalType": "uint256",
          "name": "id",
          "type": "uint256"
        },
        {
          "indexed": false,
          "internalType": "address",
          "name": "newOwner",
          "type": "address"
        }
      ],
      "name": "OfferFilled",
      "type": "event"
    },
    {
      "stateMutability": "nonpayable",
      "type": "fallback"
    },
    {
      "inputs": [],
      "name": "ListngPrice",
      "outputs": [
        {
          "internalType": "uint256",
          "name": "",
          "type": "uint256"
        }
      ],
      "stateMutability": "view",
      "type": "function"
    },
    {
      "inputs": [
        {
          "internalType": "address",
          "name": "_new_owner",
          "type": "address"
        }
      ],
      "name": "TransferOwnership",
      "outputs": [],
      "stateMutability": "nonpayable",
      "type": "function"
    },
    {
      "inputs": [],
      "name": "Withdraw",
      "outputs": [],
      "stateMutability": "payable",
      "type": "function"
    },
    {
      "inputs": [
        {
          "internalType": "uint256",
          "name": "_offerId",
          "type": "uint256"
        },
        {
          "internalType": "address",
          "name": "nft_contract_address",
          "type": "address"
        }
      ],
      "name": "cancelOffer",
      "outputs": [],
      "stateMutability": "nonpayable",
      "type": "function"
    },
    {
      "inputs": [],
      "name": "claimFunds",
      "outputs": [],
      "stateMutability": "nonpayable",
      "type": "function"
    },
    {
      "inputs": [
        {
          "internalType": "uint256",
          "name": "_offerId",
          "type": "uint256"
        },
        {
          "internalType": "address",
          "name": "nft_contract_address",
          "type": "address"
        }
      ],
      "name": "fillOffer",
      "outputs": [],
      "stateMutability": "payable",
      "type": "function"
    },
    {
      "inputs": [
        {
          "internalType": "address",
          "name": "user_address",
          "type": "address"
        }
      ],
      "name": "getUserAuctions",
      "outputs": [
        {
          "components": [
            {
              "internalType": "uint256",
              "name": "offerId",
              "type": "uint256"
            },
            {
              "internalType": "uint256",
              "name": "id",
              "type": "uint256"
            },
            {
              "internalType": "address",
              "name": "user",
              "type": "address"
            },
            {
              "internalType": "uint256",
              "name": "price",
              "type": "uint256"
            },
            {
              "internalType": "bool",
              "name": "fulfilled",
              "type": "bool"
            },
            {
              "internalType": "bool",
              "name": "cancelled",
              "type": "bool"
            }
          ],
          "internalType": "struct FlokiMarketPlace._Offer[]",
          "name": "",
          "type": "tuple[]"
        }
      ],
      "stateMutability": "view",
      "type": "function"
    },
    {
      "inputs": [
        {
          "internalType": "uint256",
          "name": "_id",
          "type": "uint256"
        },
        {
          "internalType": "uint256",
          "name": "_price",
          "type": "uint256"
        },
        {
          "internalType": "address",
          "name": "nft_contract_address",
          "type": "address"
        }
      ],
      "name": "makeOffer",
      "outputs": [],
      "stateMutability": "payable",
      "type": "function"
    },
    {
      "inputs": [],
      "name": "offerCount",
      "outputs": [
        {
          "internalType": "uint256",
          "name": "",
          "type": "uint256"
        }
      ],
      "stateMutability": "view",
      "type": "function"
    },
    {
      "inputs": [
        {
          "internalType": "uint256",
          "name": "",
          "type": "uint256"
        }
      ],
      "name": "offers",
      "outputs": [
        {
          "internalType": "uint256",
          "name": "offerId",
          "type": "uint256"
        },
        {
          "internalType": "uint256",
          "name": "id",
          "type": "uint256"
        },
        {
          "internalType": "address",
          "name": "user",
          "type": "address"
        },
        {
          "internalType": "uint256",
          "name": "price",
          "type": "uint256"
        },
        {
          "internalType": "bool",
          "name": "fulfilled",
          "type": "bool"
        },
        {
          "internalType": "bool",
          "name": "cancelled",
          "type": "bool"
        }
      ],
      "stateMutability": "view",
      "type": "function"
    },
    {
      "inputs": [
        {
          "internalType": "address",
          "name": "",
          "type": "address"
        }
      ],
      "name": "userFunds",
      "outputs": [
        {
          "internalType": "uint256",
          "name": "",
          "type": "uint256"
        }
      ],
      "stateMutability": "view",
      "type": "function"
    }
  ],
  "bytecode": "0x608060405266470de4df82000060015534801561001b57600080fd5b50600480546001600160a01b03191633179055610f648061003d6000396000f3fe60806040526004361061009c5760003560e01c80638387c6e1116100645780638387c6e11461011d5780638a72ea6a1461014a578063ac307773146101e7578063c0fc80a2146101fc578063cfaaa2661461021c578063ff3ad0b41461023c5761009c565b80631115c24d146100ae5780632cafe010146100d757806357ea89b6146100ec5780636457c4f8146100f45780637fd1eeb014610107575b3480156100a857600080fd5b50600080fd5b3480156100ba57600080fd5b506100c460005481565b6040519081526020015b60405180910390f35b6100ea6100e5366004610e01565b610269565b005b6100ea61055c565b6100ea610102366004610e2c565b6105ef565b34801561011357600080fd5b506100c460015481565b34801561012957600080fd5b506100c4610138366004610dc8565b60036020526000908152604090205481565b34801561015657600080fd5b506101aa610165366004610de9565b6002602081905260009182526040909120805460018201549282015460038301546004909301549193926001600160a01b039091169160ff8082169161010090041686565b6040805196875260208701959095526001600160a01b039093169385019390935260608401529015156080830152151560a082015260c0016100ce565b3480156101f357600080fd5b506100ea6107ca565b34801561020857600080fd5b506100ea610217366004610e01565b6108c4565b34801561022857600080fd5b506100ea610237366004610dc8565b610b14565b34801561024857600080fd5b5061025c610257366004610dc8565b610b9a565b6040516100ce9190610e60565b6000828152600260205260409020805482919084146102c65760405162461bcd60e51b8152602060048201526014602482015273151a19481bd999995c881b5d5cdd08195e1a5cdd60621b60448201526064015b60405180910390fd5b60028101546001600160a01b03163314156103315760405162461bcd60e51b815260206004820152602560248201527f546865206f776e6572206f6620746865206f666665722063616e6e6f742066696044820152641b1b081a5d60da1b60648201526084016102bd565b600481015460ff16156103915760405162461bcd60e51b815260206004820152602260248201527f416e206f666665722063616e6e6f742062652066756c66696c6c656420747769604482015261636560f01b60648201526084016102bd565b6004810154610100900460ff16156103f95760405162461bcd60e51b815260206004820152602560248201527f412063616e63656c6c6564206f666665722063616e6e6f742062652066756c666044820152641a5b1b195960da1b60648201526084016102bd565b806003015434146104635760405162461bcd60e51b815260206004820152602e60248201527f5468652045544820616d6f756e742073686f756c64206d61746368207769746860448201526d20746865204e465420507269636560901b60648201526084016102bd565b60018101546040516323b872dd60e01b815230600482015233602482015260448101919091526001600160a01b038316906323b872dd90606401600060405180830381600087803b1580156104b757600080fd5b505af11580156104cb573d6000803e3d6000fd5b50505060048201805460ff191660011790555060028101546001600160a01b03166000908152600360205260408120805434929061050a908490610ee5565b9091555050600181015460408051868152602081019290925233908201527fd9157c065213ada613694e84b1e27fe2efd62d85c6b82bd6c842a4999491e72a906060015b60405180910390a150505050565b6004546001600160a01b031633146105c05760405162461bcd60e51b815260206004820152602160248201527f6f6e6c79204f776e65722063616e2043616c6c20746869732046756e6374696f6044820152603760f91b60648201526084016102bd565b60405133903480156108fc02916000818181858888f193505050501580156105ec573d6000803e3d6000fd5b50565b6001543410156106575760405162461bcd60e51b815260206004820152602d60248201527f302e303220457468657273206973206e656564656420746f204372656174652060448201526c61204d61726b6574204974656d60981b60648201526084016102bd565b6040516323b872dd60e01b81523360048201523060248201526044810184905281906001600160a01b038216906323b872dd90606401600060405180830381600087803b1580156106a757600080fd5b505af11580156106bb573d6000803e3d6000fd5b50506000805492509050806106cf83610efd565b90915550506040805160c080820183526000805480845260208085018a81523386880181815260608089018d81526080808b0189815260a0808d018b8152998b526002808a528e8c209d518e55975160018e01559451968c0180546001600160a01b0319166001600160a01b03988916179055915160038c015590516004909a018054975161ffff199098169a151561ff0019169a909a176101009715159790970296909617909855855489519081529384018d90529783015294810189905290810182905293840152908416908201527fc8d84aeceb64e3ad453b75a8c751fc68b343d8b09b9ccd52ec0b29ac8d1b59b49060e00161054e565b336000908152600360205260409020546108325760405162461bcd60e51b8152602060048201526024808201527f54686973207573657220686173206e6f2066756e647320746f20626520636c616044820152631a5b595960e21b60648201526084016102bd565b3360008181526003602052604080822054905181156108fc0292818181858888f19350505050158015610869573d6000803e3d6000fd5b5033600081815260036020908152604091829020548251938452908301527f4f0554190111f93f8c2ccef2cc41473f187d7f29ff5a5c308ca41f9dfe4e989a910160405180910390a133600090815260036020526040812055565b60008281526002602052604090208054829190841461091c5760405162461bcd60e51b8152602060048201526014602482015273151a19481bd999995c881b5d5cdd08195e1a5cdd60621b60448201526064016102bd565b60028101546001600160a01b0316331461098c5760405162461bcd60e51b815260206004820152602b60248201527f546865206f666665722063616e206f6e6c792062652063616e63656c6564206260448201526a3c903a34329037bbb732b960a91b60648201526084016102bd565b600481015460ff16156109ef5760405162461bcd60e51b815260206004820152602560248201527f412066756c66696c6c6564206f666665722063616e6e6f742062652063616e63604482015264195b1b195960da1b60648201526084016102bd565b6004810154610100900460ff1615610a545760405162461bcd60e51b815260206004820152602260248201527f416e206f666665722063616e6e6f742062652063616e63656c6c656420747769604482015261636560f01b60648201526084016102bd565b60018101546040516323b872dd60e01b815230600482015233602482015260448101919091526001600160a01b038316906323b872dd90606401600060405180830381600087803b158015610aa857600080fd5b505af1158015610abc573d6000803e3d6000fd5b5050505060048101805461ff001916610100179055600181015460408051868152602081019290925233908201527f5b166b4d0498ff8c4719999cb6154c5d197e6f020f9fbfcf9d347f84576cfab79060600161054e565b6004546001600160a01b03163314610b785760405162461bcd60e51b815260206004820152602160248201527f6f6e6c79206f776e65722063616e2063616c6c20746869732066756e6374696f6044820152603760f91b60648201526084016102bd565b600480546001600160a01b0319166001600160a01b0392909216919091179055565b606060008060005b6000548111610c07576001600160a01b03851660026000610bc4846001610ee5565b81526020810191909152604001600020600201546001600160a01b03161415610bf55782610bf181610efd565b9350505b80610bff81610efd565b915050610ba2565b5060008267ffffffffffffffff811115610c3157634e487b7160e01b600052604160045260246000fd5b604051908082528060200260200182016040528015610c9157816020015b6040805160c08101825260008082526020808301829052928201819052606082018190526080820181905260a08201528252600019909201910181610c4f5790505b50905060005b6000548111610da3576001600160a01b03861660026000610cb9846001610ee5565b81526020810191909152604001600020600201546001600160a01b03161415610d91576000610ce9826001610ee5565b600081815260026020818152604092839020835160c08101855281548152600182015492810192909252918201546001600160a01b03169281019290925260038101546060830152600481015460ff8082161515608085015261010090910416151560a0830152855192935091859087908110610d7657634e487b7160e01b600052603260045260246000fd5b6020908102919091010152610d8c600186610ee5565b945050505b80610d9b81610efd565b915050610c97565b50949350505050565b80356001600160a01b0381168114610dc357600080fd5b919050565b600060208284031215610dd9578081fd5b610de282610dac565b9392505050565b600060208284031215610dfa578081fd5b5035919050565b60008060408385031215610e13578081fd5b82359150610e2360208401610dac565b90509250929050565b600080600060608486031215610e40578081fd5b8335925060208401359150610e5760408501610dac565b90509250925092565b602080825282518282018190526000919060409081850190868401855b82811015610ed8578151805185528681015187860152858101516001600160a01b0316868601526060808201519086015260808082015115159086015260a09081015115159085015260c09093019290850190600101610e7d565b5091979650505050505050565b60008219821115610ef857610ef8610f18565b500190565b6000600019821415610f1157610f11610f18565b5060010190565b634e487b7160e01b600052601160045260246000fdfea264697066735822122011f36773d0c86029aa024c17cb88a637fc6069bcaa89ed7634981228348f899564736f6c63430008040033",
  "linkReferences": {},
  "deployedLinkReferences": {}
}