{
  "_format": "hh-sol-artifact-1",
  "contractName": "FlokiCollection",
  "sourceName": "contracts/FlokiCollection.sol",
  "abi": [
    {
      "inputs": [
        {
          "internalType": "string",
          "name": "_name",
          "type": "string"
        },
        {
          "internalType": "string",
          "name": "_symbol",
          "type": "string"
        },
        {
          "internalType": "address",
          "name": "_artist",
          "type": "address"
        },
        {
          "internalType": "string",
          "name": "_contractImageUri",
          "type": "string"
        }
      ],
      "stateMutability": "nonpayable",
      "type": "constructor"
    },
    {
      "anonymous": false,
      "inputs": [
        {
          "indexed": true,
          "internalType": "address",
          "name": "owner",
          "type": "address"
        },
        {
          "indexed": true,
          "internalType": "address",
          "name": "approved",
          "type": "address"
        },
        {
          "indexed": true,
          "internalType": "uint256",
          "name": "tokenId",
          "type": "uint256"
        }
      ],
      "name": "Approval",
      "type": "event"
    },
    {
      "anonymous": false,
      "inputs": [
        {
          "indexed": true,
          "internalType": "address",
          "name": "owner",
          "type": "address"
        },
        {
          "indexed": true,
          "internalType": "address",
          "name": "operator",
          "type": "address"
        },
        {
          "indexed": false,
          "internalType": "bool",
          "name": "approved",
          "type": "bool"
        }
      ],
      "name": "ApprovalForAll",
      "type": "event"
    },
    {
      "anonymous": false,
      "inputs": [
        {
          "indexed": true,
          "internalType": "address",
          "name": "from",
          "type": "address"
        },
        {
          "indexed": true,
          "internalType": "address",
          "name": "to",
          "type": "address"
        },
        {
          "indexed": true,
          "internalType": "uint256",
          "name": "tokenId",
          "type": "uint256"
        }
      ],
      "name": "Transfer",
      "type": "event"
    },
    {
      "inputs": [
        {
          "internalType": "uint256",
          "name": "",
          "type": "uint256"
        }
      ],
      "name": "Items",
      "outputs": [
        {
          "internalType": "uint256",
          "name": "id",
          "type": "uint256"
        },
        {
          "internalType": "address",
          "name": "creator",
          "type": "address"
        },
        {
          "internalType": "string",
          "name": "uri",
          "type": "string"
        }
      ],
      "stateMutability": "view",
      "type": "function"
    },
    {
      "inputs": [
        {
          "internalType": "address",
          "name": "to",
          "type": "address"
        },
        {
          "internalType": "uint256",
          "name": "tokenId",
          "type": "uint256"
        }
      ],
      "name": "approve",
      "outputs": [],
      "stateMutability": "nonpayable",
      "type": "function"
    },
    {
      "inputs": [
        {
          "internalType": "address",
          "name": "owner",
          "type": "address"
        }
      ],
      "name": "balanceOf",
      "outputs": [
        {
          "internalType": "uint256",
          "name": "",
          "type": "uint256"
        }
      ],
      "stateMutability": "view",
      "type": "function"
    },
    {
      "inputs": [],
      "name": "contractImage",
      "outputs": [
        {
          "internalType": "string",
          "name": "",
          "type": "string"
        }
      ],
      "stateMutability": "view",
      "type": "function"
    },
    {
      "inputs": [
        {
          "internalType": "uint256",
          "name": "tokenId",
          "type": "uint256"
        }
      ],
      "name": "getApproved",
      "outputs": [
        {
          "internalType": "address",
          "name": "",
          "type": "address"
        }
      ],
      "stateMutability": "view",
      "type": "function"
    },
    {
      "inputs": [
        {
          "internalType": "address",
          "name": "user_address",
          "type": "address"
        }
      ],
      "name": "getUserNft",
      "outputs": [
        {
          "components": [
            {
              "internalType": "uint256",
              "name": "id",
              "type": "uint256"
            },
            {
              "internalType": "address",
              "name": "creator",
              "type": "address"
            },
            {
              "internalType": "string",
              "name": "uri",
              "type": "string"
            }
          ],
          "internalType": "struct FlokiCollection.Item[]",
          "name": "",
          "type": "tuple[]"
        }
      ],
      "stateMutability": "view",
      "type": "function"
    },
    {
      "inputs": [
        {
          "internalType": "address",
          "name": "owner",
          "type": "address"
        },
        {
          "internalType": "address",
          "name": "operator",
          "type": "address"
        }
      ],
      "name": "isApprovedForAll",
      "outputs": [
        {
          "internalType": "bool",
          "name": "",
          "type": "bool"
        }
      ],
      "stateMutability": "view",
      "type": "function"
    },
    {
      "inputs": [
        {
          "internalType": "string",
          "name": "uri",
          "type": "string"
        }
      ],
      "name": "mint",
      "outputs": [
        {
          "internalType": "uint256",
          "name": "",
          "type": "uint256"
        }
      ],
      "stateMutability": "nonpayable",
      "type": "function"
    },
    {
      "inputs": [],
      "name": "name",
      "outputs": [
        {
          "internalType": "string",
          "name": "",
          "type": "string"
        }
      ],
      "stateMutability": "view",
      "type": "function"
    },
    {
      "inputs": [],
      "name": "noOfItems",
      "outputs": [
        {
          "internalType": "uint256",
          "name": "",
          "type": "uint256"
        }
      ],
      "stateMutability": "view",
      "type": "function"
    },
    {
      "inputs": [],
      "name": "owner",
      "outputs": [
        {
          "internalType": "address",
          "name": "",
          "type": "address"
        }
      ],
      "stateMutability": "view",
      "type": "function"
    },
    {
      "inputs": [
        {
          "internalType": "uint256",
          "name": "tokenId",
          "type": "uint256"
        }
      ],
      "name": "ownerOf",
      "outputs": [
        {
          "internalType": "address",
          "name": "",
          "type": "address"
        }
      ],
      "stateMutability": "view",
      "type": "function"
    },
    {
      "inputs": [
        {
          "internalType": "address",
          "name": "from",
          "type": "address"
        },
        {
          "internalType": "address",
          "name": "to",
          "type": "address"
        },
        {
          "internalType": "uint256",
          "name": "tokenId",
          "type": "uint256"
        }
      ],
      "name": "safeTransferFrom",
      "outputs": [],
      "stateMutability": "nonpayable",
      "type": "function"
    },
    {
      "inputs": [
        {
          "internalType": "address",
          "name": "from",
          "type": "address"
        },
        {
          "internalType": "address",
          "name": "to",
          "type": "address"
        },
        {
          "internalType": "uint256",
          "name": "tokenId",
          "type": "uint256"
        },
        {
          "internalType": "bytes",
          "name": "_data",
          "type": "bytes"
        }
      ],
      "name": "safeTransferFrom",
      "outputs": [],
      "stateMutability": "nonpayable",
      "type": "function"
    },
    {
      "inputs": [
        {
          "internalType": "address",
          "name": "operator",
          "type": "address"
        },
        {
          "internalType": "bool",
          "name": "approved",
          "type": "bool"
        }
      ],
      "name": "setApprovalForAll",
      "outputs": [],
      "stateMutability": "nonpayable",
      "type": "function"
    },
    {
      "inputs": [
        {
          "internalType": "bytes4",
          "name": "interfaceId",
          "type": "bytes4"
        }
      ],
      "name": "supportsInterface",
      "outputs": [
        {
          "internalType": "bool",
          "name": "",
          "type": "bool"
        }
      ],
      "stateMutability": "view",
      "type": "function"
    },
    {
      "inputs": [],
      "name": "symbol",
      "outputs": [
        {
          "internalType": "string",
          "name": "",
          "type": "string"
        }
      ],
      "stateMutability": "view",
      "type": "function"
    },
    {
      "inputs": [
        {
          "internalType": "uint256",
          "name": "tokenId",
          "type": "uint256"
        }
      ],
      "name": "tokenURI",
      "outputs": [
        {
          "internalType": "string",
          "name": "",
          "type": "string"
        }
      ],
      "stateMutability": "view",
      "type": "function"
    },
    {
      "inputs": [
        {
          "internalType": "address",
          "name": "from",
          "type": "address"
        },
        {
          "internalType": "address",
          "name": "to",
          "type": "address"
        },
        {
          "internalType": "uint256",
          "name": "tokenId",
          "type": "uint256"
        }
      ],
      "name": "transferFrom",
      "outputs": [],
      "stateMutability": "nonpayable",
      "type": "function"
    }
  ],
  "bytecode": "0x60806040523480156200001157600080fd5b5060405162001c9d38038062001c9d8339810160408190526200003491620001fa565b8351849084906200004d906000906020850190620000a1565b50805162000063906001906020840190620000a1565b5050600880546001600160a01b0319166001600160a01b03851617905550805162000096906009906020840190620000a1565b5050505050620002fb565b828054620000af90620002a8565b90600052602060002090601f016020900481019282620000d357600085556200011e565b82601f10620000ee57805160ff19168380011785556200011e565b828001600101855582156200011e579182015b828111156200011e57825182559160200191906001019062000101565b506200012c92915062000130565b5090565b5b808211156200012c576000815560010162000131565b600082601f83011262000158578081fd5b81516001600160401b0380821115620001755762000175620002e5565b604051601f8301601f19908116603f01168101908282118183101715620001a057620001a0620002e5565b81604052838152602092508683858801011115620001bc578485fd5b8491505b83821015620001df5785820183015181830184015290820190620001c0565b83821115620001f057848385830101525b9695505050505050565b6000806000806080858703121562000210578384fd5b84516001600160401b038082111562000227578586fd5b620002358883890162000147565b955060208701519150808211156200024b578485fd5b620002598883890162000147565b604088015190955091506001600160a01b038216821462000278578384fd5b6060870151919350808211156200028d578283fd5b506200029c8782880162000147565b91505092959194509250565b600181811c90821680620002bd57607f821691505b60208210811415620002df57634e487b7160e01b600052602260045260246000fd5b50919050565b634e487b7160e01b600052604160045260246000fd5b611992806200030b6000396000f3fe608060405234801561001057600080fd5b50600436106101215760003560e01c806370a08231116100ad578063a22cb46511610071578063a22cb4651461026b578063b88d4fde1461027e578063c87b56dd14610291578063d85d3d27146102a4578063e985e9c5146102b757600080fd5b806370a0823114610215578063837c18eb146102285780638da5cb5b146102485780638eab84ee1461025b57806395d89b411461026357600080fd5b806317b47cc4116100f457806317b47cc4146101a357806323b872dd146101c557806342842e0e146101d85780636352211e146101eb5780636ba25ea5146101fe57600080fd5b806301ffc9a71461012657806306fdde031461014e578063081812fc14610163578063095ea7b31461018e575b600080fd5b610139610134366004611604565b6102f3565b60405190151581526020015b60405180910390f35b610156610345565b60405161014591906117a9565b610176610171366004611682565b6103d7565b6040516001600160a01b039091168152602001610145565b6101a161019c3660046115db565b610471565b005b6101b66101b1366004611682565b610587565b6040516101459392919061185f565b6101a16101d33660046114ed565b61063c565b6101a16101e63660046114ed565b61066d565b6101766101f9366004611682565b610688565b61020760075481565b604051908152602001610145565b61020761022336600461149a565b6106ff565b61023b61023636600461149a565b610786565b6040516101459190611722565b600854610176906001600160a01b031681565b6101566109e3565b610156610a71565b6101a16102793660046115a1565b610a80565b6101a161028c366004611528565b610a8f565b61015661029f366004611682565b610ac7565b6102076102b236600461163c565b610bcf565b6101396102c53660046114bb565b6001600160a01b03918216600090815260056020908152604080832093909416825291909152205460ff1690565b60006001600160e01b031982166380ac58cd60e01b148061032457506001600160e01b03198216635b5e139f60e01b145b8061033f57506301ffc9a760e01b6001600160e01b03198316145b92915050565b606060008054610354906118c1565b80601f0160208091040260200160405190810160405280929190818152602001828054610380906118c1565b80156103cd5780601f106103a2576101008083540402835291602001916103cd565b820191906000526020600020905b8154815290600101906020018083116103b057829003601f168201915b5050505050905090565b6000818152600260205260408120546001600160a01b03166104555760405162461bcd60e51b815260206004820152602c60248201527f4552433732313a20617070726f76656420717565727920666f72206e6f6e657860448201526b34b9ba32b73a103a37b5b2b760a11b60648201526084015b60405180910390fd5b506000908152600460205260409020546001600160a01b031690565b600061047c82610688565b9050806001600160a01b0316836001600160a01b031614156104ea5760405162461bcd60e51b815260206004820152602160248201527f4552433732313a20617070726f76616c20746f2063757272656e74206f776e656044820152603960f91b606482015260840161044c565b336001600160a01b0382161480610506575061050681336102c5565b6105785760405162461bcd60e51b815260206004820152603860248201527f4552433732313a20617070726f76652063616c6c6572206973206e6f74206f7760448201527f6e6572206e6f7220617070726f76656420666f7220616c6c0000000000000000606482015260840161044c565b6105828383610cd0565b505050565b600a6020526000908152604090208054600182015460028301805492936001600160a01b03909216926105b9906118c1565b80601f01602080910402602001604051908101604052809291908181526020018280546105e5906118c1565b80156106325780601f1061060757610100808354040283529160200191610632565b820191906000526020600020905b81548152906001019060200180831161061557829003601f168201915b5050505050905083565b6106463382610d3e565b6106625760405162461bcd60e51b815260040161044c9061180e565b610582838383610e35565b61058283838360405180602001604052806000815250610a8f565b6000818152600260205260408120546001600160a01b03168061033f5760405162461bcd60e51b815260206004820152602960248201527f4552433732313a206f776e657220717565727920666f72206e6f6e657869737460448201526832b73a103a37b5b2b760b91b606482015260840161044c565b60006001600160a01b03821661076a5760405162461bcd60e51b815260206004820152602a60248201527f4552433732313a2062616c616e636520717565727920666f7220746865207a65604482015269726f206164647265737360b01b606482015260840161044c565b506001600160a01b031660009081526003602052604090205490565b606060008060005b6006548110156107f4576001600160a01b038516600a60006107b1846001611892565b81526020810191909152604001600020600101546001600160a01b031614156107e257826107de816118fc565b9350505b806107ec816118fc565b91505061078e565b5060008267ffffffffffffffff81111561081e57634e487b7160e01b600052604160045260246000fd5b60405190808252806020026020018201604052801561086b57816020015b6040805160608082018352600080835260208301529181019190915281526020019060019003908161083c5790505b50905060005b6006548110156109da5733600a600061088b846001611892565b81526020810191909152604001600020600101546001600160a01b031614156109c85760006108bb826001611892565b6000818152600a602090815260409182902082516060810184528154815260018201546001600160a01b031692810192909252600281018054949550909391928492908401919061090b906118c1565b80601f0160208091040260200160405190810160405280929190818152602001828054610937906118c1565b80156109845780601f1061095957610100808354040283529160200191610984565b820191906000526020600020905b81548152906001019060200180831161096757829003601f168201915b5050505050815250508486815181106109ad57634e487b7160e01b600052603260045260246000fd5b60209081029190910101526109c3600186611892565b945050505b806109d2816118fc565b915050610871565b50949350505050565b600980546109f0906118c1565b80601f0160208091040260200160405190810160405280929190818152602001828054610a1c906118c1565b8015610a695780601f10610a3e57610100808354040283529160200191610a69565b820191906000526020600020905b815481529060010190602001808311610a4c57829003601f168201915b505050505081565b606060018054610354906118c1565b610a8b338383610fd1565b5050565b610a993383610d3e565b610ab55760405162461bcd60e51b815260040161044c9061180e565b610ac1848484846110a0565b50505050565b6000818152600260205260409020546060906001600160a01b0316610b2e5760405162461bcd60e51b815260206004820152601f60248201527f55524920717565727920666f72206e6f6e6578697374656e7420746f6b656e00604482015260640161044c565b6000828152600a602052604090206002018054610b4a906118c1565b80601f0160208091040260200160405190810160405280929190818152602001828054610b76906118c1565b8015610bc35780601f10610b9857610100808354040283529160200191610bc3565b820191906000526020600020905b815481529060010190602001808311610ba657829003601f168201915b50505050509050919050565b6008546000906001600160a01b03163314610c245760405162461bcd60e51b815260206004820152601560248201527427b7363c9021b7b63632b1ba34b7b71027bbb732b960591b604482015260640161044c565b610c32600680546001019055565b6000610c3d60065490565b600780549192506000610c4f836118fc565b9190505550610c5e33826110d3565b604080516060810182528281523360208083019182528284018781526000868152600a8352949094208351815591516001830180546001600160a01b0319166001600160a01b039092169190911790559251805192939192610cc6926002850192019061136f565b5091949350505050565b600081815260046020526040902080546001600160a01b0319166001600160a01b0384169081179091558190610d0582610688565b6001600160a01b03167f8c5be1e5ebec7d5bd14f71427d1e84f3dd0314c0f7b2291e5b200ac8c7c3b92560405160405180910390a45050565b6000818152600260205260408120546001600160a01b0316610db75760405162461bcd60e51b815260206004820152602c60248201527f4552433732313a206f70657261746f7220717565727920666f72206e6f6e657860448201526b34b9ba32b73a103a37b5b2b760a11b606482015260840161044c565b6000610dc283610688565b9050806001600160a01b0316846001600160a01b03161480610dfd5750836001600160a01b0316610df2846103d7565b6001600160a01b0316145b80610e2d57506001600160a01b0380821660009081526005602090815260408083209388168352929052205460ff165b949350505050565b826001600160a01b0316610e4882610688565b6001600160a01b031614610eac5760405162461bcd60e51b815260206004820152602560248201527f4552433732313a207472616e736665722066726f6d20696e636f72726563742060448201526437bbb732b960d91b606482015260840161044c565b6001600160a01b038216610f0e5760405162461bcd60e51b8152602060048201526024808201527f4552433732313a207472616e7366657220746f20746865207a65726f206164646044820152637265737360e01b606482015260840161044c565b610f19600082610cd0565b6001600160a01b0383166000908152600360205260408120805460019290610f429084906118aa565b90915550506001600160a01b0382166000908152600360205260408120805460019290610f70908490611892565b909155505060008181526002602052604080822080546001600160a01b0319166001600160a01b0386811691821790925591518493918716917fddf252ad1be2c89b69c2b068fc378daa952ba7f163c4a11628f55a4df523b3ef91a4505050565b816001600160a01b0316836001600160a01b031614156110335760405162461bcd60e51b815260206004820152601960248201527f4552433732313a20617070726f766520746f2063616c6c657200000000000000604482015260640161044c565b6001600160a01b03838116600081815260056020908152604080832094871680845294825291829020805460ff191686151590811790915591519182527f17307eab39ab6107e8899845ad3d59bd9653f200f220920489ca2b5937696c31910160405180910390a3505050565b6110ab848484610e35565b6110b7848484846110ed565b610ac15760405162461bcd60e51b815260040161044c906117bc565b610a8b8282604051806020016040528060008152506111fa565b60006001600160a01b0384163b156111ef57604051630a85bd0160e11b81526001600160a01b0385169063150b7a02906111319033908990889088906004016116e5565b602060405180830381600087803b15801561114b57600080fd5b505af192505050801561117b575060408051601f3d908101601f1916820190925261117891810190611620565b60015b6111d5573d8080156111a9576040519150601f19603f3d011682016040523d82523d6000602084013e6111ae565b606091505b5080516111cd5760405162461bcd60e51b815260040161044c906117bc565b805181602001fd5b6001600160e01b031916630a85bd0160e11b149050610e2d565b506001949350505050565b611204838361122d565b61121160008484846110ed565b6105825760405162461bcd60e51b815260040161044c906117bc565b6001600160a01b0382166112835760405162461bcd60e51b815260206004820181905260248201527f4552433732313a206d696e7420746f20746865207a65726f2061646472657373604482015260640161044c565b6000818152600260205260409020546001600160a01b0316156112e85760405162461bcd60e51b815260206004820152601c60248201527f4552433732313a20746f6b656e20616c7265616479206d696e74656400000000604482015260640161044c565b6001600160a01b0382166000908152600360205260408120805460019290611311908490611892565b909155505060008181526002602052604080822080546001600160a01b0319166001600160a01b03861690811790915590518392907fddf252ad1be2c89b69c2b068fc378daa952ba7f163c4a11628f55a4df523b3ef908290a45050565b82805461137b906118c1565b90600052602060002090601f01602090048101928261139d57600085556113e3565b82601f106113b657805160ff19168380011785556113e3565b828001600101855582156113e3579182015b828111156113e35782518255916020019190600101906113c8565b506113ef9291506113f3565b5090565b5b808211156113ef57600081556001016113f4565b600067ffffffffffffffff808411156114235761142361192d565b604051601f8501601f19908116603f0116810190828211818310171561144b5761144b61192d565b8160405280935085815286868601111561146457600080fd5b858560208301376000602087830101525050509392505050565b80356001600160a01b038116811461149557600080fd5b919050565b6000602082840312156114ab578081fd5b6114b48261147e565b9392505050565b600080604083850312156114cd578081fd5b6114d68361147e565b91506114e46020840161147e565b90509250929050565b600080600060608486031215611501578081fd5b61150a8461147e565b92506115186020850161147e565b9150604084013590509250925092565b6000806000806080858703121561153d578081fd5b6115468561147e565b93506115546020860161147e565b925060408501359150606085013567ffffffffffffffff811115611576578182fd5b8501601f81018713611586578182fd5b61159587823560208401611408565b91505092959194509250565b600080604083850312156115b3578182fd5b6115bc8361147e565b9150602083013580151581146115d0578182fd5b809150509250929050565b600080604083850312156115ed578182fd5b6115f68361147e565b946020939093013593505050565b600060208284031215611615578081fd5b81356114b481611943565b600060208284031215611631578081fd5b81516114b481611943565b60006020828403121561164d578081fd5b813567ffffffffffffffff811115611663578182fd5b8201601f81018413611673578182fd5b610e2d84823560208401611408565b600060208284031215611693578081fd5b5035919050565b60008151808452815b818110156116bf576020818501810151868301820152016116a3565b818111156116d05782602083870101525b50601f01601f19169290920160200192915050565b6001600160a01b03858116825284166020820152604081018390526080606082018190526000906117189083018461169a565b9695505050505050565b60006020808301818452808551808352604092508286019150828160051b870101848801865b8381101561179b57888303603f19018552815180518452878101516001600160a01b03168885015286015160608785018190526117878186018361169a565b968901969450505090860190600101611748565b509098975050505050505050565b6020815260006114b4602083018461169a565b60208082526032908201527f4552433732313a207472616e7366657220746f206e6f6e20455243373231526560408201527131b2b4bb32b91034b6b83632b6b2b73a32b960711b606082015260800190565b60208082526031908201527f4552433732313a207472616e736665722063616c6c6572206973206e6f74206f6040820152701ddb995c881b9bdc88185c1c1c9bdd9959607a1b606082015260800190565b8381526001600160a01b03831660208201526060604082018190526000906118899083018461169a565b95945050505050565b600082198211156118a5576118a5611917565b500190565b6000828210156118bc576118bc611917565b500390565b600181811c908216806118d557607f821691505b602082108114156118f657634e487b7160e01b600052602260045260246000fd5b50919050565b600060001982141561191057611910611917565b5060010190565b634e487b7160e01b600052601160045260246000fd5b634e487b7160e01b600052604160045260246000fd5b6001600160e01b03198116811461195957600080fd5b5056fea2646970667358221220c85e49dc06470361f1b28e8fbdfc20457a99c3c61be15c9bbb5facfed194137264736f6c63430008040033",
  "linkReferences": {},
  "deployedLinkReferences": {}
}